:030000000200B744
:0C00B700787FE4F6D8FD758148020079DE
:0D00AA00758902E4F58CF58AD2A9D28C226A
:03000B00020006EA
:030006000521329F
:0700C300D288D2A8D2AF22BF
:0300030002000EEA
:10000E00C0E0C0D075D000C000E5236028E521D344
:10001E0094204009E521943F500375220074242555
:10002E0022F8A6217521000522E522B4210D7522A4
:10003E0000D2018006752100752301D000D0D0D0EA
:02004E00E0329E
:100050007E01E4FDE4FCEFC313FF74242EF8E6D325
:10006000940640034307800E0CBC08EA74452DF843
:08007000A6070DBD04DED2005D
:010078002265
:10009700E54724E86008240C7006D2B48002C2B495
:0300A700C2002272
:100079001200C31200AA75B210E4F5B1C2B430017E
:0E00890005120050C2013000F512009780F001
:00000001FF
