:0300000002000EED
:0C000E00787FE4F6D8FD75814D020055A6
:10018200C1020125000127000121000128000126EA
:01019200006C
:0901A1001201B31201940201AA3B
:0901AA0075B210E4F5B1C2B422F3
:0D019400758902E4F58CF58AD2A9D28C227F
:03000B000200DC14
:1000DC00C0E0C0D005223002020525E525B4270575
:1000EC007525000527E527B464057527000521E56E
:1000FC0021B43C020528E528B43C057528000526EA
:05010C00D0D0D0E0326C
:0701B300D288D2A8D2AF22CE
:0300030002009A5E
:10009A00C0E0C0D075D000C000E5246028E522D3B6
:1000AA0094204009E522943F5003752300742925C2
:1000BA0023F8A6227522000523E523B4210D752312
:1000CA0000D2018006752200752401D000D0D0D05C
:0200DA00E03212
:10013F007E01E4FDE4FCEFC313FF74292EF8E6D330
:10014F00940640034307800E0CBC08EA744A2DF84E
:08015F00A6070DBD04DED2006D
:010167002275
:10011100E54C24F8601824F0600C24BA600C2452D9
:100121007019D2B48015C2B48011D202800DC202FE
:0E013100E4F525F527F521F528F526C2002274
:100168001201A130010512013FC201300003120142
:0A01780011E521B40AEDD2B480E9CC
:10001A00020168E493A3F8E493A34003F68001F293
:10002A0008DFF48029E493A3F85407240CC8C333E7
:10003A00C4540F4420C8834004F456800146F6DFB6
:10004A00E4800B0102040810204080900182E47EC3
:10005A00019360BCA3FF543F30E509541FFEE493AB
:10006A00A360010ECF54C025E060A840B8E493A372
:10007A00FAE493A3F8E493A3C8C582C8CAC583CA9D
:10008A00F0A3C8C582C8CAC583CADFE9DEE780BE55
:01019300006B
:00000001FF
