:020000040800F2
:10000000E80800202D020008A70A00086F08000871
:10001000A30A000825070008DF12000800000000FE
:10002000000000000000000000000000450C000877
:1000300029070008000000002D0B0008590D0008DA
:10004000470200084702000847020008470200086C
:100050004702000847020008470200082D07000871
:10006000470200084702000847020008470200084C
:10007000470200084702000847020008470200083C
:10008000470200084702000847020008470200082C
:10009000470200084702000847020008470200081C
:1000A000470200084702000847020008470200080C
:1000B0004702000847020008BD0D0008470200087B
:1000C00047020008470200084702000847020008EC
:1000D00047020008BD100008470200084702000858
:1000E00047020008470200084702000847020008CC
:1000F00047020008470200084702000847020008BC
:100100004702000847020008F50D000847020008F2
:100110004702000847020008650E0008D50E0008D7
:10012000470200084702000847020008470200088B
:1001300000F002F800F06BF80AA090E8000C82448E
:100140008344AAF10107DA4501D100F060F8AFF26B
:10015000090EBAE80F0013F0010F18BFFB1A43F0A5
:100160000103184794370000B43700000A444FF0E9
:10017000000C10F8013B13F0070408BF10F8014B06
:100180001D1108BF10F8015B641E05D010F8016B4B
:10019000641E01F8016BF9D113F0080F1EBF10F8AF
:1001A000014BAD1C0C1B09D16D1E58BF01F801CBD2
:1001B000FAD505E014F8016B01F8016B6D1EF9D555
:1001C0009142D6D37047000000230024002500266A
:1001D000103A28BF78C1FBD8520728BF30C148BFAA
:1001E0000B607047642900F09F80752900F09C80A7
:1001F000782900F0D580632900F02982732900F066
:100200002E82002070471FB51FBD10B510BD00F035
:1002100059FA1146FFF7F7FF01F030FA00F077FACC
:1002200003B4FFF7F2FF03BC01F0B7F809488047B9
:1002300009480047FEE7FEE7FEE7FEE7FEE7FEE7C8
:10024000FEE7FEE7FEE7FEE704480549054A064BE0
:10025000704700005D0D000831010008E802002031
:10026000E8080020E8040020E804002070470000AF
:100270000FB4044910B503AA029800F0F5F910BCB8
:100280005DF814FB4800002070B5044685690068DD
:10029000C10601D5302600E02026C00707D070BD7A
:1002A000D4E9012130469047206A401C20626D1E2F
:1002B000F6D570BD70B5044685690078C00707D1D2
:1002C00070BDD4E9012120209047206A401C2062A3
:1002D0006D1EF6D570BD70B50C460546012A05D0D9
:1002E0002878800600D5EA69002302E0012305E0B2
:1002F0005B1C934202D2E05C0028F9D1A869E618A1
:10030000C01AA861286A184428622846FFF7BCFF73
:1003100004E0D5E9012114F8010B9047B442F8D369
:100320002846FFF7C7FF70BD2DE9F04106460024BF
:1003300010687529314616A510D0AFF3008000284B
:1003400002DA404213A507E031688A0701D512A5F9
:1003500002E0490704D511A5012401E0AFF30080B4
:1003600000210A2206F1240709E0B0FBF2FCB0FBF1
:10037000F2F302FB1C00303078541846491C002868
:10038000F3D123462A463046BDE8F04100F0FCB8E0
:10039000000000002D0000002B00000020000000E5
:1003A00070B504460D4621461068AFF300802188E1
:1003B000090502D50F4A7A4402E00E4A7A440E3209
:1003C000002104F1240305E000F00F060009965D0A
:1003D0005E54491C0028F7D120780023000704D57B
:1003E000702D02D009B1022311322046BDE87040C1
:1003F00000F0CAB8943300002DE9F05F8946044646
:100400004FF0000ADFF874B1FB44C0F820A020468A
:10041000E1688847002874D0252806D0D4E9012156
:100420009047206A401C2062F1E700265F46204684
:10043000E16888472028054607DB312D05D2781969
:1004400010F8200C08B10643F1E7B00701D526F0FB
:100450000406C4F81CA00027C4F818A02A2D09D04F
:10046000284600F093FF38B304EB8708303DC8F806
:10047000185019E059F8041B204604EB87029161DB
:10048000E1688847012F054618D1E069002820DA85
:1004900026F020061DE0D8F8180000EB800005EBE0
:1004A00040003038C8F818002046E1688847054603
:1004B00000F06CFF0028EED1012F0AD02E2D08D1BC
:1004C0002046E16888477F1C0546022F46F020063B
:1004D000C4DBA069002803DA404246F00106A061AF
:1004E000F00701D026F010066C2D0BD0682D09D036
:1004F0004C2D39D06A2D35D0742D35D07A2D33D08E
:1005000016E038E0E1682F4620468847B8420546A5
:1005100009D16C2F26D04FF48060E1680643204655
:100520008847054604E06C2F1AD04FF480700643CC
:100530000DB3A5F14100192802D8203546F4006614
:100540004A462946204626604E46FFF74BFE80B1BC
:1005500001280BD0F61D26F0070000F1080956E728
:100560004020E4E78020D8E70020D6E706F1040920
:100570004DE7284652E7206ABDE8F09F6A33000045
:1005800070477047704770472DE9F0470D46994610
:100590009246044600F124080168880604D5E06903
:1005A00021F01001216000E00120A84201DD471B7D
:1005B00000E00027A1697A1902EB0900081AA0617E
:1005C0002078C00602D42046FFF75EFE002608E031
:1005D000D4E901211AF806009047206A401C761CD5
:1005E00020624E45F4DB2078C0060AD52046FFF78E
:1005F0004BFE06E0D4E9012130209047206A401CE0
:100600002062381EA7F10107F4DC07E0D4E90121DC
:1006100018F805009047206A401C2062281EA5F1AA
:100620000105F3DC2046FFF745FE2078000602D5E1
:100630000220BDE8F0870120FBE710B5436913B144
:10064000AFF3008001E0FFF746FE012010BD1278F5
:1006500000F124010A7000224A700122EDE71168BE
:100660004FF0FF32E9E70000074B70B50D467B44C1
:1006700000F011F80446284600F020F810B14FF0C1
:10068000FF3070BD204670BDA30F000001694A1CF9
:1006900002610878704700B58FB0CDE901310021C3
:1006A000059105497944CDE9031011466846FFF7E5
:1006B000A3FE0FB000BD0000E5FFFFFF007B00F0D0
:1006C00080007047754600F029F8AE46050069467F
:1006D000534620F00700854618B020B5FFF7B4FD5B
:1006E000BDE820404FF000064FF000074FF0000833
:1006F0004FF0000B21F00701AC46ACE8C009ACE8B4
:10070000C009ACE8C009ACE8C0098D467047044692
:10071000AFF300802046FFF783FD000000487047DC
:100720008802002000BFFEE77047000010B50448B3
:100730000088401C02490880022000F003F810BD28
:100740004E00002001490860704700001404014079
:100750002DE9F04102460025002600200023002458
:10076000002791F803C00CF00F0591F803C00CF0BE
:10077000100CBCF1000F03D091F802C04CEA050543
:1007800091F800C0BCF1000F31D0146800202BE0BC
:100790004FF0010C0CFA00F3B1F800C00CEA0306AC
:1007A0009E4220D183004FF00F0C0CFA03F7BC439C
:1007B00005FA03FC4CEA040491F803C0BCF1280FCD
:1007C00006D14FF0010C0CFA00FCC2F814C00AE08C
:1007D00091F803C0BCF1480F05D14FF0010C0CFAA1
:1007E00000FCC2F810C0401C0828D1D31460B1F836
:1007F00000C0BCF1FF0F34DD546800202EE000F192
:10080000080C4FF0010808FA0CF3B1F800C00CEA2C
:1008100003069E4221D183004FF00F0C0CFA03F720
:10082000BC4305FA03FC4CEA040491F803C0BCF194
:10083000280F05D100F1080C08FA0CF8C2F8148052
:1008400091F803C0BCF1480F07D100F1080C4FF03C
:10085000010808FA0CF8C2F81080401C0828CED312
:100860005460BDE8F081416170470161704700BF8D
:10087000FEE7000008B50121402000F069F941F6CB
:100880009F70ADF8000048208DF8030069460248CB
:10089000FFF75EFF08BD00000018014010B50446D8
:1008A00014B10120694908706848007800286ED0AA
:1008B0006748006880B36648001D006860B36448FC
:1008C0000830006840B362480C30006820B36048CC
:1008D0001030006800B35E4814300068E0B15C4836
:1008E00018300068C0B15A481C300068A0B15848A0
:1008F0002030006880B156482430006860B1544808
:100900002830006840B152482C30006820B150486F
:1009100030300068002853D10A2000F055FE002036
:100920004A4908704A48006808B9012010BD484883
:10093000001D006808B90220F8E745480830006843
:1009400008B90320F2E742480C30006808B90420D7
:10095000ECE73F481030006808B90520E6E73C485E
:100960001430006808B90620E0E7394818300068FC
:1009700008B90720DAE736481C30006808B90820B3
:10098000D4E733482030006810B90920CEE717E0DB
:100990002F482430006808B90A20C7E72C482830BF
:1009A000006808B90B20C1E729482C30006808B955
:1009B0000C20BBE7264830300068E8BB0D20B5E7C7
:1009C0002348006801283FD12148001D0068012804
:1009D0003AD11F4808300068012835D11C480C3036
:1009E0000068012830D11A481030006801282BD146
:1009F000174814300068012826D1154818300068BF
:100A0000012821D112481C30006801281CD110484F
:100A100020300068012817D10D48243000680128D3
:100A200012D10B482830006801280DD108482C301D
:100A30000068012808D100E006E005483030006871
:100A4000012801D10149087000206FE75000002003
:100A50000001234270B505460E46144624B93146BE
:100A6000284600F03FFC1BE0012C04D1314628460B
:100A700000F054FC14E0022C04D13146284600F06A
:100A800069FC0DE0032C0BD13146284600F02AFC0E
:100A90003146284600F042FC3146284600F05AFC18
:100AA00070BD00BFFEE7704770B5002100230F2224
:100AB000C47804B3154C246804F4E064C4F5E0641D
:100AC000210AC1F10403CA40447804FA03F184788E
:100AD0001440214309010E4C0678A155047804F016
:100AE0001F050124AC4005786D11AD0005F1E0252E
:100AF000C5F8004109E0047804F01F050124AC406A
:100B0000044D0678761145F8264070BD0CED00E0E6
:100B100000E400E080E100E002490143024A116084
:100B2000704700000000FA050CED00E0704700007F
:100B300029B1064AD2690243044BDA6104E0034A50
:100B4000D2698243014BDA61704700000010024015
:100B500029B1064A92690243044B9A6104E0034AB0
:100B600092698243014B9A61704700000010024075
:100B700030B500210022002400232D4D6D6805F0C2
:100B80000C0121B1042905D0082923D105E0294D04
:100B9000056022E0274D05601FE0254D6D6805F4D6
:100BA0007012234D6D6805F48034022505EB9242E6
:100BB0001CB9214D554305600BE01D4D6D6805F4D2
:100BC00000351DB11C4D5543056002E0194D5543DC
:100BD000056002E0174D056000BF00BF144D6D6851
:100BE00005F0F0010909154D6B5C0568DD404560B5
:100BF0000F4D6D6805F4E061090A104D6B5C4568A6
:100C0000DD4085600A4D6D6805F46051C90A0B4DE1
:100C10006B5C4568DD40C560054D6D6805F440417D
:100C2000890B074D6B5CC568B5FBF3F5056130BDFD
:100C30000010024000127A0000093D003000002040
:100C400040000020704710B500F002F810BD000011
:100C50000CB50020019000903348006840F48030CB
:100C60003149086000BF3048006800F4003000904F
:100C70000198401C0190009818B90198B0F5A06F38
:100C8000F1D12948006800F4003010B10120009033
:100C900001E0002000900098012843D1234800681B
:100CA00040F01000214908600846006820F0030069
:100CB00008600846006840F0020008601A48406872
:100CC000194948600846406848600846406840F452
:100CD000806048600846406820F47C104860084600
:100CE000406840F4E81048600846006840F08070B2
:100CF000086000BF0C48006800F000700028F9D0C0
:100D00000948406820F003000749486008464068E9
:100D100040F00200486000BF0348406800F00C004B
:100D20000828F9D10CBD000000100240002002404C
:100D3000042808D14FF0E021096941F004014FF087
:100D4000E022116107E04FF0E021096921F0040180
:100D50004FF0E022116170477047000010B5134852
:100D6000006840F0010011490860084640681049D9
:100D700008400E494860084600680E4908400B4983
:100D800008600846006820F4802008600846406833
:100D900020F4FE0048604FF41F008860FFF753FF07
:100DA0004FF000600449086010BD000000100240D0
:100DB0000000FFF8FFFFF6FE08ED00E010B501218E
:100DC0000A4800F0DDF801280AD10949086980477E
:100DD0000021064800F0F0F86421044800F0EAF829
:100DE0000121024800F0B1F810BD000000080040E9
:100DF000A800002010B50121154800F0C1F830B35B
:100E00000121134800F0A1F812480068401C114964
:100E100008600846006800F0010048B120210E4833
:100E2000FFF723FD0D480068401C0C49086006E0F0
:100E300000200849086020210748FFF714FD0748F3
:100E4000006807490968884201D301F0F1FE10BD2E
:100E5000000C0040A4010020000801400800002010
:100E60001400002010B50121154800F089F830B3B6
:100E70000121134800F069F812480068401C11492C
:100E800008600846006800F0010048B140210E48A3
:100E9000FFF7EBFC0D480068401C0C49086006E0B9
:100EA00000200849086040210748FFF7DCFC07489C
:100EB000006807490968884201D301F021FE10BD8E
:100EC000001000409C0100200008014000000020AC
:100ED0000C00002010B50121154800F051F830B386
:100EE0000121134800F031F812480068401C1149F4
:100EF00008600846006800F0010048B180210E48F3
:100F0000FFF7B3FC0D480068401C0C49086006E080
:100F100000200849086080210748FFF7A4FC074823
:100F2000006807490968884201D301F035FE10BD09
:100F300000140040A001002000080140040000202F
:100F400010000020CA4302827047CA4302827047E1
:100F500021B1028842F00102028004E002884FF6CB
:100F6000FE731A40028070470146888C7047024623
:100F70000020138A0B400BB1012000E000207047D5
:100F800030B50246002000230024158A05EA01033B
:100F9000958905EA010413B10CB1012000E000209D
:100FA00030BD1AB183890B43838102E083898B436F
:100FB0008381704781857047818470470022028851
:100FC0001D4B98420ED01D4B98420BD0B0F1804F74
:100FD00008D01B4B984205D01A4B984202D01A4BAE
:100FE000984204D14FF68F731A404B881A43174B1F
:100FF000984207D0164B984204D04FF6FF431A4050
:10100000CB881A4302808B8883850B8803850A4B23
:1010100098420BD0094B984208D00E4B984205D00D
:101020000D4B984202D00D4B984201D10B7A0386AA
:101030000123838270470000002C014000340140EE
:101040000004004000080040000C00400010004078
:1010500000140040004001400044014000480140AD
:101060007FB505460C4601210420FFF761FDADF870
:101070000850ADF804400020ADF80A00ADF80600B5
:1010800001A90D48FFF79AFF012241210A48FFF705
:1010900088FF1E208DF8000003208DF801008DF8D8
:1010A000020001208DF803006846FFF7FDFC0121D6
:1010B0000148FFF74DFF7FBD0008004010B540F22A
:1010C00025511D4800F04AF810B31B4800F002F902
:1010D000C4B21A48008800F40040C8B91748008814
:1010E00000F4804060B10A2C03D00020134908802E
:1010F00020E01248008840F400401049088019E0C0
:101100000D2C06D10D48008840F480400B49088022
:1011100010E00A480088C0F30D0009490C54074844
:101120000088401C0549088008460088C72801DD62
:101130000020088010BD0000003801404C00002055
:10114000C001002021B1828942F40052828104E072
:1011500082894DF6FF731A408281704770B502464E
:10116000002400230025002040F66A16B14200D179
:1011700000BFC1F3421501F01F03012606FA03F375
:10118000012D02D19689334006E0022D02D1168A44
:10119000334001E0968A33400C12012606FA04F42B
:1011A0001688344013B10CB1012000E0002070BD5E
:1011B000F0B50346002400260025002040F66A17FB
:1011C000B94200D100BF1846C1F3421401F01F0616
:1011D000012707FA06F5012C01D10C3004E0022C9E
:1011E00001D1103000E014301AB107682F430760B6
:1011F00002E00768AF430760F0BD00002DE9F0474B
:1012000086B005460E460024A24600BFA146002730
:10121000B08900B100BF2F462C8A4CF6FF70044005
:10122000F08804432C82AC894EF6F3100440B08859
:1012300031890843718908430443AC81AC8A4FF675
:10124000FF400440B0890443AC8201A8FFF790FC42
:101250001F48874202D1DDF810A001E0DDF80CA0A4
:10126000A88900F4004040B10AEBCA0000EB0A1064
:1012700031684900B0FBF1F807E00AEBCA0000EB67
:101280000A1031688900B0FBF1F86420B8FBF0F077
:1012900004012009642101FB1089A88900F40040A1
:1012A00040B1322000EBC900B0FBF1F000F00700C4
:1012B000044308E0322000EB09106421B0FBF1F098
:1012C00000F00F0004432C8106B0BDE8F087000059
:1012D0000038014001468888C0F30800704700BF0D
:1012E000FEE7000070B504460D460B480088204418
:1012F00000B209490880002C05DBA0B22A46002173
:1013000001F0DAFB07E0002C05DA614288B22A46D8
:10131000012101F0D1FB70BDB801002070B5044679
:101320000D460B480088204400B209490880002C73
:1013300005DBA0B22A46002101F00AFC07E0002CE0
:1013400005DA614288B22A46012101F001FC70BD34
:10135000BA01002070B504460D460B4800882044B1
:1013600000B209490880002C05DBA0B22A46002102
:1013700001F03AFC07E0002C05DA614288B22A4607
:10138000012101F031FC70BDBC01002030380A2879
:1013900001D20120704700207047014600BF70470E
:1013A0002DE9F04704461F49B1F90050002D01DB3B
:1013B000294600E0694288B22246012101F07CFB07
:1013C0001949B1F90050002D01DB294600E06942BE
:1013D00088B22246012101F0BBFB204601F006FF46
:1013E0000746124A124B01F003FE054601F036FC97
:1013F00082461049B1F90090B9F1000F01DB49466E
:1014000001E0C9F1000188B25246012101F0ECFB74
:101410000020044908800449088006490880BDE886
:10142000F0870000B8010020BA01002060E5D0225A
:10143000DBF9F43FBC01002010B50020FFF72EFAC5
:101440004B490870084600780E281BD2DFE800F0F0
:101450008D071B23374B4E8D515B656F79830022BF
:1014600044499620FFF7F6FA012242499620FFF7F9
:10147000F1FA02224049C420FFF7ECFA4FF4FA7067
:1014800000F0A2F871E03B48FFF78AFF4FF4FA70D2
:1014900000F09AF869E0002238491E20FFF7DAFAD6
:1014A000012236491E20FFF7D5FA022233491E20B9
:1014B000FFF7D0FA4FF4FA7000F086F855E00022FA
:1014C0002E493220FFF7C6FA01222C493220FFF7BD
:1014D000C1FA022229493220FFF7BCFA4FF4FA7010
:1014E00000F072F841E000F025F93EE000F022F94A
:1014F0003BE0234A0021082001F0DEFA4FF4FA70A5
:1015000000F062F800BF1E4A0121082001F0D4FA61
:101510004FF4FA7000F058F827E0194A002108202B
:1015200001F016FB4FF4FA7000F04EF81DE0144A7B
:101530000121082001F00CFB4FF4FA7000F044F890
:1015400013E00F4A0021082001F04EFB4FF4FA701F
:1015500000F03AF809E00A4A0121082001F044FBB2
:101560004FF4FA7000F030F800BF00BF10BD00006B
:101570001800002000409C4600D8CC460050C346CE
:1015800000401C4610B56FF00400FFF7D1FB0A487D
:1015900000680A49B0FBF1F0094908700846007874
:1015A00000EB4001C1EBC0104FF6FF7101EAC00033
:1015B0000449088010BD00001C00002000127A00C1
:1015C00044000020460000200146114A12884A4388
:1015D0004FF0E0235A6100229A611A46126942F0E4
:1015E00001021A6100BF4FF0E022106900F0010211
:1015F0001AB100F48032002AF5D04FF0E0221269CF
:1016000022F001024FF0E0231A6100229A61704734
:101610004600002000BF054A128802F04002002A5E
:10162000F9D0C2B2014B1B1D1A807047003801402F
:1016300070B504460D4600260EE0002008490860FB
:101640002846FFF7C1FF01200649C1F89801284646
:10165000FFF7BAFF701CC6B2A642EEDB002070BDD9
:101660009881234200802342024908600249C1F860
:101670009C0170479881234200802342FFF782FF3C
:10168000FFF7F8F800F084F84FF4E13000F056F975
:101690004FF44070FFF740FA01E0FFF7CDFEFCE7A2
:1016A0002DE9F04706460F4614461D46DDE9088938
:1016B00039463046FFF716FE29462046FFF72EFE34
:1016C00049464046FFF746FEBDE8F08701460868F8
:1016D000704700002DE9F0410446204601F075FCFA
:1016E0000546044A044B01F0EBFA074601F040FCC2
:1016F000BDE8F0817B14AE47E17A443F2DE9F04725
:1017000004460B4D2946204601F0E0FE814649463D
:101710004FF07E5001F0F8FD80464FF07E5101F011
:10172000A1FF074601F0B2FE06463046BDE8F0874D
:10173000BD37063600200E4908600E4908600E4984
:1017400008600E4908600E4908600E48008800F0E5
:10175000FE000C4908800C48008800F0FE000A4991
:1017600008800A48008800F0FE0008490880704799
:1017700000000020040000200C00002010000020C9
:10178000A80100200010004000140040000C0040A0
:1017900008B501210420FFF7DBF9E020ADF80000D7
:1017A00014208DF8030003208DF8020069461648C6
:1017B000FEF7CEFF01211020FFF7CAF94FF4E070C9
:1017C000ADF8000014208DF8030003208DF802000E
:1017D00069460E48FEF7BCFF4FF4E0710B48FFF777
:1017E00042F80B48008800F0FE00094908800948CB
:1017F000008800F0FE00074908800748008800F0D4
:10180000FE000549088008BD0008014000100140A5
:101810000010004000140040000C004070B5054668
:101820000C462046A84770BD7FB505460C460121F1
:101830000820FFF77DF9ADF80850ADF8044000200E
:10184000ADF80A00ADF8060001A90D48FFF7B6FB98
:10185000012211460A48FFF7A4FB32208DF8000050
:1018600001208DF801008DF802008DF80300684614
:10187000FFF71AF901210248FFF76AFB7FBD00005C
:10188000000C00407FB505460C4601211020FFF7F3
:101890004FF9ADF80850ADF804400020ADF80A004B
:1018A000ADF8060001A90D48FFF788FB012211469B
:1018B0000A48FFF776FB36208DF8000001208DF8EE
:1018C00001008DF802008DF803006846FFF7ECF880
:1018D00001210248FFF73CFB7FBD000000100040E3
:1018E0007FB505460C4601212020FFF721F9ADF810
:1018F0000850ADF804400020ADF80A00ADF806002D
:1019000001A90D48FFF75AFB012211460A48FFF7CB
:1019100048FB37208DF8000001208DF801008DF87C
:1019200002008DF803006846FFF7BEF80121024867
:10193000FFF70EFB7FBD00000014004010B586B01D
:101940000446012144F20400FFF702F94FF400704D
:10195000ADF8140003208DF8160018208DF817003C
:1019600005A91C48FEF7F4FE4FF48060ADF81400A2
:1019700004208DF8170005A91648FEF7E9FE25207A
:101980008DF8000003208DF801008DF80200012081
:101990008DF803006846FFF787F801940020ADF842
:1019A0000800ADF80A00ADF80C00ADF810000C20EE
:1019B000ADF80E0001A90848FFF720FC012240F213
:1019C00025510548FFF7F4FB01210348FFF7BAFB57
:1019D00006B010BD000801400038014030B595B098
:1019E000054613AB12AA09A9284600F039FA0446A5
:1019F00014B1204615B030BD0020149026E02249D5
:101A000009689DF8502001EBC20113AB11AA486888
:101A100001A900F025FA04460CB12046EAE709A91D
:101A200001A800F0BBFC60B99DF844009DF8481087
:101A3000884201DD0220DDE79DF8500012498875DB
:101A40000AE09DF85000401CC0B214900E48007D82
:101A50009DF850108842D2DC00BF0B48007D9DF8F5
:101A60005010884201D10420C4E714A9284600F090
:101A7000D7FA04460CB12046BCE79DF85000024955
:101A800048750020B6E70000A80000202DE9F041CD
:101A90009AB09C48847D007DA04202DC1AB0BDE86B
:101AA000F0819849096801EBC40106AB07AA4868B0
:101AB00008A900F0D5F908A993A0FEF7D9FB0026E4
:101AC00044E09048008B0121B1400840D8B1222168
:101AD0008FA0FEF7CDFB304600F028FB894924316A
:101AE000471839468BA0FEF7C3FB222188A0FEF7DA
:101AF000BFFB304600F01AFB82492431084410A98C
:101B000041F8260018E0304600F010FB7D492431F2
:101B1000085810A941F826007A48C07D30B910A8AD
:101B200050F826107CA0FEF7A3FB05E010A850F8A3
:101B300026107AA0FEF79CFB9DF81C00401EB042C8
:101B400002D078A0FEF794FB701CC6B29DF81C0072
:101B50008642B6DB74A0FEF78BFB00F039FB6948C8
:101B6000407D0B280DD2DFE800F0060D151E273250
:101B70003F4E5F7287006349096851F8340080471F
:101B8000054690E05F4A126852F834101098884772
:101B9000054688E05B4B1B6853F83420DDE91001F3
:101BA000904705467FE0574F3F6857F8343010A8FC
:101BB00007C89847054676E0DFF848C1DCF800C062
:101BC0005CF8347010A80FC8B84705466BE014984D
:101BD000DFF830C10090DCF800C05CF8347010A869
:101BE0000FC8B84705465EE0DDE91401DFF814C10F
:101BF000CDE90001DCF800C05CF8347010A80FC813
:101C0000B84705464FE0DDE914121698DFF8F4C036
:101C1000CDE900120290DCF800C05CF8347010A826
:101C20000FC8B84705463EE0DDE91423DDE916108C
:101C3000DFF8D0C0CDE90023CDE90210DCF800C008
:101C40005CF8347010A80FC8B84705462BE0DDE9F2
:101C50001523DDE91710CDE90123CDE90310149810
:101C6000DFF8A0C00090DCF800C05CF8347010A869
:101C70000FC8B847054616E0DDE91623DDE9181060
:101C8000CDE90223CDE90410DDE91401DFF874C0C9
:101C9000CDE90001DCF800C05CF8347010A80FC872
:101CA000B847054600BF00BF00F050FA9DF8180085
:101CB00001280CD11348C07D20B929461BA0FEF78E
:101CC000D7FA07E029461BA0FEF7D2FA02E018A0D7
:101CD000FEF7CEFA0B4890F8EC0088B10948D0F82E
:101CE000F0000A21B0FBF1F201FB12070548D0F821
:101CF000F000B0FBF1F83A46414611A0FEF7B8FA01
:101D000000BFCBE6A80000200D0A257328000000C4
:101D10002563000025730000256C75003058255898
:101D2000000000002C000000290000003D256C751B
:101D30003B0D0A003D305825583B0D0A00000000BD
:101D400046756E6374696F6E2052756E2054696DAE
:101D5000653A25642E2531646D730D0A000000007C
:101D6000F0B503461546002000220026002455E069
:101D70001F782C2F01D104B901221F78292F01D0FF
:101D80001F780FB904B94AE0002E34D11F78302FE4
:101D900002DB1F78392F11DD1F78612F02DB1F78DE
:101DA000662F0BDD1F78412F02DB1F78462F05DDE4
:101DB0001F78582F02D01F78782F0CD102B12EE057
:101DC0001F78612F03DB1F78203F0F7001E01F7821
:101DD0000F70491C1FE01F78222F04D102B11EE0B2
:101DE0000126012417E01F78202F14D01F782C2FF4
:101DF00011D0FF2613E01F78222F00D1002402B15A
:101E00000DE044B11F785C2F02D15B1C471CF8B277
:101E10001F780F70491C471CF8B25B1CA8E700BF75
:101E200000270F702E70F0BD10B504460020107012
:101E30000BE020780870641C491C1078401C10705E
:101E40001078984201DB012010BD2078202802D0B4
:101E500020780028EDD10020087000BFF4E70000D2
:101E60002DE9FF4F85B08046894600270020049069
:101E70000390012002904FF0000B002544461DE026
:101E80002078202816D005F07F00052812DA0DB939
:101E900045F0800505F07F00042803D120782A282A
:101EA00000D00EE0207805F07F010DF80100681CDD
:101EB000C5B202E0852D00D103E0641C2078002823
:101EC000DED100BF8DB1002005F07F010DF80100CB
:101ED00051A1684600F062FA18B900210898017013
:101EE00002E001210898017000254FF0000A4446E5
:101EF00014E0641C0AF1010000F0FF0A2078202899
:101F000002D020782A2809D1204600F0D7F90646C9
:101F1000282E03D02A2E01D0CDF810A02078282812
:101F200002D020780028E4D14446049810B10498E7
:101F3000401C04444FF0000A002654E0207810B9F9
:101F40004FF0010A50E02078282803D116B9781CF8
:101F5000C7B213E02078292808D13EB917B1781EFE
:101F6000C7B201E04FF0010A47B93DE020782228CE
:101F700004D10EB9012000E00020064647B92078C0
:101F800020282FD0207889F8000009F1010929E0E4
:101F900020782C2804D101200290681CC5B214E0DE
:101FA0002078202811D0207828280ED04DB9BBF1F8
:101FB000050F06DA20780DF80B000BF1010000F098
:101FC000FF0B0298401CC0B20290012F0AD1029868
:101FD000022807D10298401CC0B202900398401C0E
:101FE000C0B20390641CA9E700BF0398012809D17F
:101FF00000200DF80B0008A1684600F0CFF908B9E1
:1020000000200390079903980870002089F80000C9
:10201000504609B0BDE8F08F766F6964000000009B
:102020002DE9F043B5B005460F460024002604E034
:1020300000213D488155701CC6B20A2EF8DB06E02F
:102040006D1C287818B9012035B0BDE8F0832878D8
:102050002828F5D16D1C61E034AA69462846FFF7AF
:102060007FFE064635449DF8D00020B1012827D0D8
:10207000FF284CD149E09DF8000000B333A9684621
:1020800000F027F906460EB10220DDE7204600F0F9
:102090004DF825490A31339A0A50A1F12400008BEA
:1020A0000121A140884320491A39088304211E4890
:1020B0000155601CC4B20A2C01DD0320C4E726E0F0
:1020C000684600F087F9401C00F0FF08204600F049
:1020D0002DF815490A3100EB01094946684600F020
:1020E0006EF911481A38018B0120A040014388B2D3
:1020F0000D491A3908830C4800F80480601CC4B2EA
:102100000A2C01DD03209FE701E002209CE700BFCD
:102110002878292801D0287800B900E09CE700BF82
:102120003C70002090E70000C20000200246002022
:10213000002105E0044B5B5C0344D8B24B1CD9B2D0
:102140009142F7DB70470000C200002010B501216A
:102150000D48FEF70CFF012808D10C48D0F8F0001C
:102160004FF6FF7108440949C1F8F0000648FEF730
:10217000FBFE0649D1F8F01008440449C1F8F0000C
:102180000846D0F8F00010BD00080040A80000206C
:1021900010B5044604EBC40000EB04100122C2EBAE
:1021A000800081B24FF47A70FEF75AFF0120014996
:1021B000C87510BDA800002010B50246012000E03F
:1021C00050430B00A1F10104E1B2F9D110BD0000B0
:1021D00010B501210848FEF7B5FE4FF6FF7106481D
:1021E000FEF7E8FE00210448FEF7E6FE0020034962
:1021F000C1F8F00010BD000000080040A800002059
:1022000070B51D48008800F40040002833D01A48FB
:1022100005780020194948551948816817488847AA
:1022200004461CB91649C868804721E0134800F0ED
:10223000DDF80546012D00D02C46CCB1012C06D08E
:10224000022C08D0032C0AD0042C10D10BE00DA0D6
:10225000FEF70EF80BE00EA0FEF70AF807E00FA05D
:10226000FEF706F803E010A0FEF702F800BF00BF7B
:1022700000200149088070BD4C000020C0010020F2
:10228000A8000020BAAFCAFDB4EDCEF3210D0A00BC
:10229000B2CECAFDB4EDCEF3210D0A00B2CECAFD16
:1022A000CCABB6E0210D0A00CEB4D5D2B5BDC6A5E3
:1022B000C5E4B5C4BAAFCAFD210D0A000146491CE8
:1022C00000E0491C0878202801D10029F9D10878BC
:1022D00070472DE9F04307460E4600254FF00A08E7
:1022E0003C46002030601FE02078392802DC20784E
:1022F00030280ADA2078462802DC2078412804DADF
:102300002078582809D1012D07D12078412801DBF8
:102310004FF01008681CC5B205E0207800B904E051
:102320000120BDE8F083641CDEE700BF3C46B8F145
:10233000100F0FD1032D01DA0220F2E720783028A8
:1023400006D16078582803D1A41CA81EC5B204E0A9
:102350000320E6E70DB90420E3E71BE00DB1681E9A
:10236000C5B22078392806DC2078302803DB2078B5
:10237000A0F1300902E02078A0F137092946404653
:10238000FFF71AFF316809FB00103060641C2078E9
:1023900000B900E0E2E700BF0020C2E702460AE021
:1023A00010780B78984201D001207047107800B95E
:1023B00002E0521C491CF3E700BF0020F5E706E0ED
:1023C00002780A70027802B902E0401C491CF7E763
:1023D00000BF70470146002005E00A7802B903E01B
:1023E000421CD0B2491CF8E700BF704710B58CB052
:1023F00004461E230BAA03A92046FFF715FD0090F3
:10240000009810B101200CB010BD9DF82C000444C0
:1024100000200B900EE060489DF82C2050F8221010
:1024200003A8FFF7BBFF00B908E09DF82C00401C93
:10243000C0B20B909DF82C000728ECD300BF9DF88C
:102440002C0007287CD2DFE800F004053C5E8EA556
:10245000A40000BF51A0FDF70BFF51A0FDF708FF3E
:102460005DA0FDF705FF61A0FDF702FF6EA0FDF77F
:10247000FFFE7DA0FDF7FCFE8BA0FDF7F9FE98A006
:10248000FDF7F6FE9BA0FDF7F3FEA0A0FDF7F0FE22
:10249000A5A0FDF7EDFEAAA0FDF7EAFEAEA0FDF7B0
:1024A000E7FEB4A0FDF7E4FEC0A0FDF7E1FECDA07D
:1024B000FDF7DEFED8A0FDF7DBFEE4A0FDF7D8FEB9
:1024C000A4E236A0FDF7D4FEF0A0FDF7D1FE002077
:1024D0000B900EE0FD4800689DF82C2000EBC20038
:1024E0004168FBA0FDF7C4FE9DF82C00401CC0B263
:1024F0000B90F648007D9DF82C108842EADC27A05E
:10250000FDF7B6FE82E225A0FDF7B2FEF2A0FDF7D0
:10251000AFFE00200B901CE0EC4909689DF82C20D0
:1025200001EBC20101AB02AA486803A9FFF798FCBE
:10253000E64800689DF82C1050F8312003A900E00F
:1025400062E2F5A0FDF794FE9DF82C00401CC0B29D
:102550000B90DE48007D9DF82C108842DCDC0FA03B
:10256000FDF786FE52E20DA0FDF782FE0BAA03A93D
:102570002046FFF7F5FB9DF82C0040B9694603A8FB
:10258000FFF7A7FE0B909DF82C0008B9CEE1DFE124
:10259000D1E10EE2E2E10000540000200D0A00004B
:1025A0002D2D2D2D2D2D2D2D2D2D2D2D2D2D2D2D5B
:1025B0002D2D2D2D2D2D7368656C6C2D2D2D2D2D14
:1025C0002D2D2D2D2D2D2D2D2D2D2D2D2D2D2D2D3B
:1025D0002D2D2D200D0A0000C0E0CBC66C696E7554
:1025E00078B5C47368656C6C0D0A0000C4E3BFC99C
:1025F000D2D4CDA8B9FDB4AEBFDAD6FACAD6B5F7F3
:10260000D3C3B3CCD0F2C0EFC3E6B5C4C8CEBACE04
:10261000BAAFCAFD2CB2A2D6B4D0D02ED2F2B4CB6F
:102620002CC4E3BFC90D0A00D2D4CBE6D2E2B8FC79
:10263000B8C4BAAFCAFDB5C4CAE4C8EBB2CECAFDCD
:1026400028D6A7B3D6CAFDD7D62831302F3136BD0C
:10265000F8D6C629A1A2D7D6B7FBB4AEA1A2BAAF0D
:10266000CAFDC8EB0D0A0000BFDAB5D8D6B7B5C8A9
:10267000D7F7CEAAB2CECAFD292CB5A5B8F6BAAF07
:10268000CAFDD7EEB6E0D6A7B3D63130B8F6CAE465
:10269000C8EBB2CECAFD2CB2A2D6A7B3D6BAAFCA87
:1026A000FDB7B5200D0A0000BBD8D6B5CFD4CABE41
:1026B0002ED0C2D4F6B2CECAFDCFD4CABEBDF8D693
:1026C000C6C9E8D6C3B9A6C4DC2CD0C2D4F6BDF8BE
:1026D000D6C6D7AABBBBB9A6C4DC2E0D0A00000023
:1026E000BCBCCAF5D6A7B3D63A646177616E670DF4
:1026F0000A0000007368656C6CD3D037B8F6CFB5AC
:10270000CDB3C3FCC1EE3A0D0A0000006D616E3A14
:10271000202020202020BBF1C8A1B0EFD6FAD0C5E0
:10272000CFA20D0A0000000068656C703A202020DE
:10273000BBF1C8A1B0EFD6FAD0C5CFA20D0A0000F8
:102740006C733A202020BFC9D3C3B5C4BAAFCAFD49
:10275000C1D0B1ED0D0A0A0069643A202020202082
:10276000BFC9D3C3BAAFCAFDB5C44944C1D0B1EDE6
:102770000D0A0A006865783A20202020B2CECAFDF2
:102780003136BDF8D6C6CFD4CABE2CBAF3B8FABF1C
:10279000D5B8F12BCAFDD7D6BCB4D6B4D0D0BDF8CD
:1027A000D6C6D7AABBBB0D0A0A0000006465633A0F
:1027B00020202020B2CECAFD3130BDF8D6C6CFD4FD
:1027C000CABE2CBAF3B8FABFD5B8F12BCAFDD7D61A
:1027D000BCB4D6B4D0D0BDF8D6C6D7AABBBB0D0A00
:1027E0000A00000072756E74696D653A312CBFAADB
:1027F000C6F4BAAFCAFDD4CBD0D0BCC6CAB13B3048
:102800002CB9D8B1D5BAAFCAFDD4CBD0D0BCC6CACA
:10281000B13B0D0A0A000000C7EBB0B4D5D5B3CC6C
:10282000D0F2B1E0D0B4B8F1CABDCAE4C8EBBAAFD7
:10283000CAFDC3FBBCB0B2CECAFDB2A2D2D4BBD8D3
:10284000B3B5BCFCBDE1CAF82E0D0A002D2D2D2D0F
:102850002D2D2D2D2D2D2D2D2D2D2D2D2D2D2D2DA8
:102860002D2D2D2D2D2D646177616E672D2D2D2D34
:102870002D2D2D2D2D2D2D2D2D2D2D2D2D2D2D2D88
:102880002D2D2D2D2D200D0A000000002D2D2D2D7C
:102890002D2D2D2D2D2D2D2D2D2D2D2D2D2D2D2D68
:1028A0002D2D2D2D2DBAAFCAFDC7E5B5A52D2D2D8A
:1028B0002D2D2D2D2D2D2D2D2D2D2D2D2D2D2D2D48
:1028C0002D2D2D2D2D2D2D2D200D0A00A8000020A1
:1028D00025730D0A000000002D2D2D2D2D2D2D2DE1
:1028E0002D2D2D2D2D2D2D2D2D2D2D2D2D2D2D2D18
:1028F0002DBAAFCAFD204944202D2D2D2D2D2D2D73
:102900002D2D2D2D2D2D2D2D2D2D2D2D2D2D2D2DF7
:102910002D2D2D2D200D0A0025732069642069734B
:102920003A0D0A3058253038580D0A0039A0009960
:10293000FDF79EFC0EE09DF82C00042801D002203B
:1029400061E537A0FDF794FC01203A49C87501E024
:10295000022058E531A0FDF78BFC57E02FA0FDF7D2
:1029600087FC0BAA03A92046FFF7FAF99DF82C0073
:10297000C8B9694603A8FFF7ACFC0B909DF82C0082
:1029800020B92DA00099FDF773FC0EE09DF82C00F6
:10299000042801D0022036E52AA0FDF769FC0020BA
:1029A0002449C87501E002202DE51CA0FDF760FC5C
:1029B0002CE01AA0FDF75CFC0BAA03A92046FFF748
:1029C000CFF99DF82C00C8B9694603A8FFF781FC30
:1029D0000B909DF82C0078B91649009881F8EC000E
:1029E000084690F8EC0018B11BA0FDF741FC07E089
:1029F00020A0FDF73DFC03E0022004E5022002E5F3
:102A000006A0FDF735FC01E00120FCE400BF00203A
:102A1000F9E400004845583A305825580D0A00009E
:102A20003136BDF8D6C6B2CECAFDCFD4CABE210D4E
:102A30000A000000A80000204445433A256C750DAB
:102A40000A0000003130BDF8D6C6B2CECAFDCFD4E0
:102A5000CABE210D0A00000052756E2054696D65D2
:102A60002043616C63756C6174696F6E204F4E0D0D
:102A70000A00000052756E2054696D652043616C38
:102A800063756C6174696F6E204F46460D0A0000D5
:102A90000160704710B50446012C04D1402105485F
:102AA000FDF7E3FE04E01CB940210248FDF7DBFE20
:102AB00010BD00000010014070B506460C461546DA
:102AC0002046FFF7E7FF3046FEF704FE05490860A1
:102AD0002846FEF713FE0449086000F007F80020BE
:102AE00070BD00000C000020A801002010B50349B3
:102AF000096888B24721FEF7C5FE10BDA801002075
:102B00000020064908600649086006490860064832
:102B1000008800F0FE000449088070470000002093
:102B20000C000020A80100200010004010B5044651
:102B3000012C04D180210548FDF797FE04E01CB963
:102B400080210248FDF78FFE10BD000000100140FB
:102B500070B506460C4615462046FFF7E7FF30469F
:102B6000FEF7B8FD054908602846FEF7C7FD044991
:102B7000086000F007F8002070BD00001000002081
:102B8000A801002010B50349096888B24721FEF763
:102B9000A7FE10BDA80100200020064908600649D4
:102BA0000860064908600648008800F0FE000449F5
:102BB000088070470400002010000020A8010020B9
:102BC0000014004010B50446012C04D10102054850
:102BD000FDF74BFE05E024B94FF480710148FDF785
:102BE00042FE10BD0010014070B506460C46154669
:102BF0002046FFF7E7FF3046FEF76CFD0549086009
:102C00002846FEF77BFD0449086000F007F8002025
:102C100070BD000014000020A801002010B5034979
:102C2000096888B24721FEF7FFFD10BDA80100200A
:102C30000020064908600649086006490860064801
:102C4000008800F0FE00044908807047080000205A
:102C500014000020A8010020000C004021F00042D8
:102C6000A2F16052B2F5801F01F0004328BFD2F1FB
:102C70007F6C0BD95FEA001C43EAC20242EB507042
:102C800018BF704728BF20F001007047B2F5801FC1
:102C9000BCBF184670474FEA410C1CF5001F02D21A
:102CA000084600F0DABC70B500F04CFA000000896C
:102CB000FFF7F6BF4FF00040A0F58000704700001E
:102CC0002DE9C04130B4DFF8A0C23CEA111418BFAE
:102CD0003CEA131400F0EC8081EA03051CEA1114AD
:102CE00044EAD57418BF1CEA131500F0C780A4EBA2
:102CF00005044FF0004545EAC12145EAC32341EAF6
:102D0000505143EA525304F17F74994204F5003460
:102D10004FEAC0204FEAC22208BF904200F09C80D8
:102D20004FEA13650FF24016765D4FEA134506FB36
:102D300005F7C7F1807706FB07F74FEAD737A7FB00
:102D400003687642C8F58038A7FB06CE38BFA8F1E5
:102D5000010807FB08E64FF0000EA6FB028CE6FB1D
:102D600003CEDCF1000CCEF1004E38BFAEF1010E07
:102D7000A6FB0C584FF000074FF00005E6FB0E874E
:102D8000A1FB08C6A0FB07CE16EB0E0645F1000519
:102D9000E1FB076515F1E04E7EBFA4F580345FEAE4
:102DA00046066D4116F1800745F100054FEA1727E9
:102DB0004FEA066647EA0567A6F1DE46B6F1805F90
:102DC0004FEA15251FD9384624F0010C05EBC471D4
:102DD000BCF1FE6F01EB0C1102D8F0BCBDE8008124
:102DE00024425CBF01F5801E9EEAC47F02D4F0BC81
:102DF000BDE80081244238D4F0BCA1F1C041BDE857
:102E0000004100F0EDB94FEAD22242EA43524FEAC4
:102E1000D323A7FB02864FEAD02040EA415007FBAC
:102E200003661EEA0E0F4FEAD12105FB026658BF6A
:102E3000A6EB0056B6EB00564FEA520E4EEAC37EA2
:102E400018EB0E0E56EB530EBDD518EB02085E4183
:102E50007F1C55F10005B6E74FF480154FF00007D1
:102E60004FF000064FF00008ADE7F0BC4FF0000057
:102E700001F1C04101F00041BDE8008111EA0C1FE1
:102E80000CEA131500D00CE013EA0C1F00F02580AB
:102E90004FF00000F0BC81EA030101F00041BDE801
:102EA0000081F0BCBDE8004181EA030100F098B95F
:102EB000F0BCBDE8004170B500F044F9097EFC3E6D
:102EC00000F007B881EA03014FF0000001F0004173
:102ED000704781EA030100F083B9F0BCBDE800410E
:102EE0004FF0000021497047FFFDFBF9F7F5F4F2C0
:102EF000F0EEEDEBE9E8E6E4E3E1E0DEDDDBDAD895
:102F0000D7D5D4D3D1D0CFCDCCCBCAC8C7C6C5C4F2
:102F1000C2C1C0BFBEBDBCBBBAB9B8B7B6B5B4B309
:102F2000B2B1B0AFAEADACABAAA9A8A8A7A6A5A4F4
:102F3000A3A3A2A1A09F9F9E9D9C9C9B9A999998B8
:102F40009797969595949393929191908F8F8E8E5B
:102F50008D8C8C8B8B8A89898888878786858584E8
:102F600084838382828181800000FF070000F87FD4
:102F70004FEA1153A3F58063D3F11E03A8BFD3F129
:102F8000200C08DB4FF0004242EAC12252EA5052C4
:102F900032FA03F0704709420BD4102BC4BF002053
:102FA000704703F5787CBCF1FF3F05D04FF0FF3050
:102FB00070474FF00000704770B500F0C3F800BFD5
:102FC0004992248000207047F0E7B0FA80F310FAAD
:102FD00003F10AD0C3F11D0303F580634FEA4150AA
:102FE0004FEA035202EBD12170474FF000007047C7
:102FF000DFF848C170B51CEA111E1EBF1CEA13158C
:103000009EEA0C0F95EA0C0F00F06F8081EA030432
:1030100023EA4C134EEAD47E21EA4C1141F480118C
:1030200043F48013AE44A1FB024CA0FB0365AEF158
:103030007F7E361955EB0C05A1FB034C4CF10003C8
:10304000A0FB021C16EB0C06654153F1000309427C
:1030500018BF46F0010613F4007F0BD14FEA03318D
:103060004FEA0530340341EA155140EA16506FF03B
:1030700003020AE04FEAC3214FEAC520F40241EA05
:10308000555140EA56506FF0020202EB2E4201EB1E
:10309000025585EACE710AD05FEA440C18BF24F0CD
:1030A000004450F1000041F1000120EAD47040F2E8
:1030B000FE7C624500D270BDA84214BF4FF0804430
:1030C0004FF04044002E08BF0024BEF1806FA8BF1F
:1030D000A1F1C041BDE8704080F282804FF0000055
:1030E00001F1C04101F0004170479EEA0C0F0CEA6B
:1030F000131518BF95EA0C0F06D04FF0000081EAB7
:10310000030E0EF0004170BD00F01CF88900013E76
:1031100000F007B800F009B84FEA430C5FEA5C5CC6
:1031200008D081EA030100F05BB84FEA410C5FEA86
:103130005C5CF6D14FF00000014970470000FF07CA
:103140000000F87F0EF1020E2EF0030E5EF8046B05
:10315000364205D4012A43EB030515F5001F12D8AA
:10316000012841EB010C1CF5001F0CD80ED14FEAD1
:10317000D17C15F5001F0CEB4C0C0CF1020C08BFB8
:103180004CEBD37C04E04FF0080C01E04FEAD37C19
:103190000CEB4C0526FA05F606F00706B6F1040C12
:1031A00006D20EEB860CBDE870404CF0010C604777
:1031B000DFE80CF0090B02024FF000414FF0000075
:1031C000A1F5002170BD19461046012851EB0104FC
:1031D00018BFD4F5001484BF002001F0004170BD79
:1031E0000808A0F500114FEA3101704743004FEA8B
:1031F000D30C4FEA3C0C43401FBF40070CF1605119
:1032000013F0FE4F70471CF0006F03D100200CF04C
:10321000004170470CF0004343EA507010B540EA9B
:10322000CC0000F0D4F900BF000000924FEA00018A
:10323000FFF7D6BF4FF000414FF00000A1F500218D
:103240007047000090EA010F48BF81F0004100F193
:103250001082421A3CBF801A89184FEAD0524FF0B0
:103260007F4C1CEA410FA2EBD15318BF9CEA026FBE
:1032700000F03B804FF0004C4CEA00204CEA01216A
:1032800021FA03FC10EB0C0C1ED202F1FF325FEAB4
:103290001C2040EBC25038BF70471CF07F0F4FEA34
:1032A000400C18BFBCF17F4F38BF7047C3F12003FB
:1032B000994008BF20F00100BCF17F4F38BF704734
:1032C000A0F1C04000F0C9B94FEA3C00000A40EB51
:1032D000C25028BF1CF0FF0F4FEA400CE6D018BFC9
:1032E000BCF17F4F38BF7047EAE79CEA026F05D018
:1032F00010EA5C0F08BF00F00040704710B500F006
:1033000066F900BF64FBBE3E4FF47F0C1CEAD0128E
:103310001EBF1CEAD11392EA0C0F93EA0C0F00F0C7
:10332000858090EA010F48BF42F4807240F4000C9F
:1033300041F400002CF07F4120F07F4000B5814235
:10334000A2EB03020FF2081CACEB504EC0F10000E0
:103350009EF800E04FEA4E0E00FB0EFC38BF49001D
:103360004FEA2C1C02F5FA020CFB0EF34FEACE1EBC
:103370004FEA112C4FEAC1210EEB635E42EB224271
:103380000EFB0CFC4FEA1C5300FB03114FEA112CFF
:103390004FEA01310EFB0CFC4FEADC4C00FB0C1138
:1033A000C14228BF09184CEB03335DF804EB10EB66
:1033B000410143EBC250B2F57C0F38BF704729D5AD
:1033C00012F0F00F1CBF00F1C04000F00040704749
:1033D000008182838485868788898B8C8D8E8F91EE
:1033E0009293959697999A9C9D9FA0A2A3A5A7A812
:1033F000AAACAEB0B2B3B5B7B9BCBEC0C2C5C7C93E
:10340000CCCED1D4D7D9DCDFE2E6E9ECF0F3F7FAA1
:10341000FE0000004FEA400C0CF1807CBCF17E4FB6
:1034200028BF7047B0F1C04000F017B990EA010F13
:103430000CEAD11348BF42F48072624538BF63453D
:1034400007D213F47F0F16D080EA010000F000408D
:10345000704710B500F0BBF8097EFC3E00F005B8DF
:1034600080EA010000F00040704780EA010000F0AF
:10347000004000F0F2B812F47F0F04BF024870471A
:1034800080EA010000F0E9B80000C07FC10DD1F171
:103490009E0206DB4FEA002343F0004323FA02F0CA
:1034A0007047004207D54FEA4001B1F1FE4F02D20A
:1034B0004FF00000704710B500F089F84992248061
:1034C000002070476FEA2000704700004FF47F0C27
:1034D0001CEAD0121EBF1CEAD11392EA0C0F93EA29
:1034E0000C0F00F0478090EA010F48BF42F4807251
:1034F0004FF0004C4CEA00204CEA012102EB0302A1
:10350000A0FB0113A2F50002002918BF43F001033C
:103510005B0028BF4FEA330342EB22425FEA132CE1
:103520004CEBC2502EBFBCEB436FB2F57C0F704723
:103530004FEA036CBCF1004F08BF20F00100B2F568
:103540007C0F38BF70470BD582F0FF0212F5803F29
:10355000C8BF704700F1C040D8BF00F000407047BE
:1035600000F5000C5FEA4C0C48BF7047B0F1C0405A
:1035700000F073B890EA010F0CEAD11348BF42F48F
:103580008072624538BF634504D280EA010000F0D2
:103590000040704710B500F01AF800BF8900013EE6
:1035A00000F007B800F009B85FEA410C5FEA1C6C54
:1035B00008D080EA010000F050B85FEA400C5FEAF2
:1035C0001C6CF6D14FF00040A0F5800070470EF162
:1035D000020E2EF0030E5EF8044B244204D44FEA90
:1035E0004102B2F17F4F11D84FEA4003B3F17F4F50
:1035F0000CD80ED14FEAD07CB2F17F4F0CEB4C0CC3
:103600000CF1020C08BF4CEBD17C04E04FF0080C2D
:1036100001E04FEAD17C0CEB4C0324FA03F404F0F4
:103620000704B4F1040C06D20EEB840CBDE8104084
:103630004CF0010C6047DFE80CF0070802024FF085
:103640000040A0F5800010BD0846420018BFD2F12E
:10365000807288BF00F0004010BDFF2141EAD050C9
:10366000C005704790EA010F48BF81F000413FF567
:10367000F0AD421A04D882F00042A0EB02001144DF
:103680004FEAD0524FF07F4C1CEA410FA2EBD153CE
:1036900018BF9CEA026F4AD04FF0004C4CEA002061
:1036A0004CEA012121FA03FCB0EB0C0C0FD412F010
:1036B000FE0F36D05FEA4C001DD5001240EBC25021
:1036C00038BF70471CF03F0F18BF70470BE0A2F1E6
:1036D00001025FEA1C2040EBC25038BF70471CF06B
:1036E0007F0F18BF7047C3F12003994014BF401EDD
:1036F00020F00100704780084FEA122308BF70478E
:10370000B0FA80FCA2EB0C02CCF1280C60FA0CF0B1
:1037100093EA122F04BF00EBC25070474FEAC37008
:103720007047130A5FEADC1008BF7047F6E79CEAAF
:10373000026F04D010EA5C0F08BF0020704710B57C
:10374000FFF745FF40DFF63E81F000407047303123
:1037500032333435363738394142434445464030B8
:10376000580030313233343536373839616263646A
:10377000656640307800040000080000000000008A
:10378000000200010000100064656300696400002D
:1037900072756E74696D65006D616E0068656C7040
:1037A000000000006C73000068657800766F696443
:1037B000206C65645F7365742875382073746129A3
:1037C00000000000766F696420746573745F66752D
:1037D0006E28766F6964282A6C656473657429287D
:1037E0007538292C7538207374612900766F6964E7
:1037F0002077726974655F61646472287533322062
:10380000616464722C7533322076616C290000008B
:103810004C6F636174655F526C6528733136206448
:10382000697374616E63652C666C6F617420667277
:10383000762C6D6F746F725F54797065206D6F7444
:103840006F725F6E756D2900753332207265616429
:103850005F61646472287533322061646472290088
:10386000696E74206C65645F666C69636B65722851
:103870007538206E756D6265722C753136207469ED
:103880006D655F6D732900006D6F746F725F737487
:103890006172742873313620585F64697374616E85
:1038A00063652C666C6F617420585F667265717514
:1038B000656E63792C73313620595F646973746166
:1038C0006E63652C666C6F617420595F66726571FA
:1038D00075656E63792C733136205A5F6469737431
:1038E000616E63652C666C6F6174205A5F667265E9
:1038F0007175656E63792900183900080000002091
:10390000C00100006C01000890390008C0010020CF
:1039100028070000C8010008011D84A24A046809A4
:1039200001020304060708090C6910C50204060811
:1039300032011398371B089C041AA4041A8C041A29
:10394000A8041A88041A900413CD161408483814D1
:1039500008912A1B08EC1013550A1B0810101AA115
:10396000181A88081A31081A60081A69081AAC204F
:10397000131D181B08C4082270142091211408DD9F
:103980001914088D1A140801224B08076F01FD0055
:0400000508000131BD
:00000001FF
