:020000040800F2
:10000000F808002019100008D9020008DB020008D7
:10001000DF020008E3020008E70200080000000019
:10002000000000000000000000000000EB020008DB
:10003000ED02000800000000EF020008F1020008D5
:100040003310000833100008331000083310000884
:100050003310000833100008331000083310000874
:100060003310000833100008331000083310000864
:100070003310000833100008331000083310000854
:100080003310000833100008331000083310000844
:100090003310000833100008331000083310000834
:1000A00033100008B50A00083310000833100008A8
:1000B0003310000833100008CD300008331000085A
:1000C0003310000833100008331000083310000804
:1000D000331000088F0F0008331000083310000899
:1000E00033100008331000083310000833100008E4
:1000F00021070008331000083310000833100008EF
:1001000033100008331000083310000833100008C3
:1001100033100008331000083310000833100008B3
:1001200033100008331000083310000833100008A3
:1001300000F002F800F076F80AA090E8000C824483
:100140008344AAF10107DA4501D100F06BF8AFF260
:10015000090EBAE80F0013F0010F18BFFB1A43F0A5
:10016000010318472C5500004C5500000A444FF07D
:10017000000C10F8013B13F0070408BF10F8014B06
:100180001D1108BF10F8015B641E05D010F8016B4B
:10019000641E01F8016BF9D113F0080F1EBF10F8AF
:1001A000014BAD1C0C1B09D16D1E58BF01F801CBD2
:1001B000FAD505E014F8016B01F8016B6D1EF9D555
:1001C0009142D6D37047000000230024002500266A
:1001D000103A28BF78C1FBD8520728BF30C148BFAA
:1001E0000B607047662905F00F81642903F0428592
:1001F000752903F03F85782903F07885632904F099
:10020000D980732904F0DE80002070471FB504F008
:10021000EFF804000020002104F044FEE0601FBD60
:1002200010B510BD04F0FCF91146FFF7EFFF00F028
:1002300009F804F01AFA03B4FFF7F2FF03BC00F068
:100240004BFE000000F0DEFD4FF4407000F004FFB4
:100250004FF4E13000F04FFE1D48416848208847C8
:1002600000F038F900F052F900F06EFB00F0CEF922
:10027000472140F2E73000F085FB472140F2E730AC
:1002800000F0E2F923E000201249086000F04FF985
:100290000446012C07D10F4908604FF4FA410020B1
:1002A00000F0CDFC13E0022C08D1012009490860C0
:1002B0004FF4FA411E2000F029FD08E0032C06D17E
:1002C0000120044908604FF4FA4100F04BFDDAE7E1
:1002D000D800002080812342704700BFFEE700BFA6
:1002E000FEE700BFFEE700BFFEE7704770477047BC
:1002F000704700000CB50020019000906C48006829
:1003000040F480306A49086000BF6948006800F422
:10031000003000900198401C0190009818B9019895
:10032000B0F5A06FF1D16248006800F4003010B160
:100330000120009001E0002000900098012843D1A6
:100340005C48006840F010005A49086008460068A0
:1003500020F0030008600846006840F002000860D2
:10036000534840685249486008464068486008461B
:10037000406840F4806048600846406820F47C1083
:1003800048600846406840F4E81048600846006845
:1003900040F08070086000BF4548006800F00070C1
:1003A0000028F9D04248406820F0030040494860E6
:1003B0000846406840F00200486000BF3C48406882
:1003C00000F00C000828F9D10CBD10B5FFF792FF22
:1003D00010BD10B53648006840F00100344908608F
:1003E000084640683449084031494860084600687A
:1003F000324908402E4908600846006820F48020F1
:1004000008600846406820F4FE0048604FF41F0072
:100410008860FFF7DAFF4FF000602949086010BDDF
:1004200010B5002100200022214B5B6803F00C0175
:1004300021B1042906D0082928D107E0214B224CFC
:10044000236027E01F4B204C236023E0184B5B68A0
:1004500003F47010164B5B6803F48032022303EB45
:10046000904022B9194B4343174C23600DE0104BC9
:100470005B6803F4003323B1144B4343124C2360F5
:1004800003E0104B4343104C236003E00D4B0E4C34
:10049000236000BF00BF064B5B68C3F303130C4C23
:1004A000E15C094B1B68CB40074C236010BD00008A
:1004B00000100240002002400000FFF8FFFFF6FE9F
:1004C00008ED00E000127A000000002000093D0065
:1004D0000400002008B50121802001F047F94FF207
:1004E0003F00ADF8000010208DF8030003208DF8C8
:1004F00002006946044800F07DFE4FF23F010248C9
:1005000000F025FF08BD0000001C014008B50121D6
:10051000402001F02BF940F29F10ADF80000482078
:100520008DF803006946374800F064FE08BD10B539
:10053000044635480068B8B13348001D006898B1DA
:1005400031480830006878B12F480C30006858B145
:100550002D481030006838B12B481C30006818B1A5
:1005600029482030006858BB0A2000F088FC264843
:10057000006808B9012010BD2348001D006808B9B3
:100580000220F8E720480830006808B90320F2E7A5
:100590001D480C30006808B90420ECE71A481030F8
:1005A000006808B90520E6E717481C30006808B95C
:1005B0000620E0E714482030006808BB0720DAE78F
:1005C0001148006801281BD10F48001D0068012850
:1005D00016D10D4808300068012811D10A480C30A6
:1005E000006801280CD1084810300068012807D1A4
:1005F00005481C300068012802D1034820300068FB
:100600000020B8E7001801400001234208B501218D
:10061000402001F0ABF84FF44040ADF8000010204E
:100620008DF8030003208DF802006946FE4800F0B3
:10063000E1FD4FF48041FC4800F089FE4FF4004199
:10064000F94800F084FE08BD30B589B004460D4677
:100650000121480301F08AF80121102001F086F8F9
:100660008020ADF8200018208DF8230003208DF89D
:10067000220008A9ED4800F0BDFD05A801F0DAFC54
:10068000ADF81840ADF814500020ADF81A00ADF8E0
:10069000160005A9E64801F0A1F90121E44801F09E
:1006A000D3FF0121E24801F04DFF0821E04801F0AD
:1006B00061FF7020ADF804000120ADF806000020B5
:1006C000ADF808006010ADF80A000020ADF80C008D
:1006D00001A9D74801F001FA0821D54801F013FE1D
:1006E0000121D34801F0D6FD01221146D04801F086
:1006F000ECFC2C208DF8000001208DF801008DF815
:1007000002008DF80300684600F0ABFC0121C848E8
:1007100001F09AFF0121C64801F0BCFC09B030BDD0
:100720002DE9F0410121C24801F07DFF002864D08D
:100730000121BF4801F088FFBE480078002841D160
:10074000BD48006848B14720B94930310880BA48EF
:100750000068401EB849086010E0B848007860B1F1
:10076000B6480078401EB249303108800020B349B5
:1007700008700120AF49087000E024E00121AC4876
:1007800001F0ACFC0121AA4801F090FC0121A8482D
:1007900001F080FCAA480078012809D1A448303033
:1007A0000088401CA74909680844A649086024E05D
:1007B0009F4830300088401CA2490968081AA149A6
:1007C00008601AE000BF01209A490870002198488B
:1007D00001F06CFC0021964801F05CFC994800682F
:1007E00004F0FDFC0646984A984B04F00FFD0446C1
:1007F00022460B4696A003F0E1F9BDE8F08170B502
:1008000004469848B0FBF4F0401E85B2294688485B
:1008100001F0D6FE6910864801F0D6FE002184481A
:1008200001F0CCFE0121824801F034FC70BD70B5AE
:1008300004460D461646002C00DC70BD7C4800883E
:1008400000F0010000B1F8E7142D02D3864885427C
:1008500000D9F2E77A480670007884490860784841
:100860000078012805D17748006820448049086055
:1008700007E07348007820B972480068001B7C4983
:100880000860482094FBF0F06B490860482094FB16
:10089000F0F100FB114069490870002065490870BB
:1008A0002846FFF7ACFF00BFC7E770B505460C460A
:1008B0005F48008800F0010000B170BD142C02D325
:1008C0006948844200D9F8E76948056000685D49D5
:1008D0000968884236D0664800685A4909688842E3
:1008E00003DD01205649087002E0002054490870D9
:1008F000534800785D4908605D490968514A1268AB
:10090000881A002801DB014600E04142482291FBA1
:10091000F2F1494A1160564909684A4A1268881A30
:10092000002801DB014600E04142482291FBF2F33E
:1009300002FB1311414A117000203E490870204605
:10094000FFF75DFF00BFB8E708B50121402000F0C8
:100950000DFF4FF44050ADF8000010208DF803005B
:1009600003208DF8020069462F4800F043FC4FF445
:1009700080512D4800F0EBFC4FF400512A4800F064
:10098000E6FC08BD30B589B004460D460121C80219
:1009900000F0ECFE0121042000F0E8FE4FF40060BE
:1009A000ADF8200018208DF8230003208DF82200D8
:1009B00008A9304800F01EFC05A801F03BFBADF88B
:1009C0001840ADF814500020ADF81A00ADF816002C
:1009D00005A9294801F002F80121274801F034FE59
:1009E0000121254801F0AEFD0821234801F0C2FD98
:1009F0007020ADF804000120ADF806000020ADF82D
:100A000008006010ADF80A000020ADF80C0001A944
:100A1000194801F0FAF80821174801F08AFC012171
:100A2000154801F037FC29E0001801400010014092
:100A300000340140150000201800002014000020A0
:100A400024000020200000207B14AE47E17A443FC0
:100A500059D6E1B5B1C7B0CEBBD6C33D2566636DEF
:100A60000D0A000040420F00A0860100B801234299
:100A70001C00002000080140002C0140012211460A
:100A8000CF4801F022FB19208DF8000001208DF8DD
:100A900001008DF802008DF80300684600F0E1FACD
:100AA0000121C74801F0D0FD0121C54801F0F2FA4B
:100AB00009B030BD2DE9F0410121C14801F0B3FD7D
:100AC000002864D00121BE4801F0BEFDBD48007879
:100AD000002841D1BC48006848B14720B8493031AE
:100AE0000880B9480068401EB749086010E0B74860
:100AF000007860B1B5480078401EB14930310880B7
:100B00000020B24908700120AE49087000E024E0DE
:100B10000121AB4801F0E2FA0121A94801F0C6FA2F
:100B20000121A74801F0B6FAA9480078012809D1A7
:100B3000A34830300088401CA64909680844A549EC
:100B4000086024E09E4830300088401CA1490968B4
:100B5000081AA04908601AE000BF012099490870EE
:100B60000021974801F0A2FA0021954801F092FA7D
:100B70009848006804F033FB0646974A974B04F008
:100B800045FB044622460B4695A003F017F8BDE846
:100B9000F08170B504469748B0FBF4F0401E85B272
:100BA0002946874801F00CFD6910854801F010FDC9
:100BB0000021834801F002FD0121814801F06AFA19
:100BC00070BD70B504460D461646002C00DC70BDA5
:100BD0007B48008800F0010000B1F8E7142D02D333
:100BE0008548854200D9F2E7794806700078834944
:100BF000086077480078012805D1764800682044CD
:100C00007F49086007E07248007820B971480068A1
:100C1000001B7B490860482094FBF0F06A4908609B
:100C2000482094FBF0F100FB114068490870002057
:100C3000644908702846FFF7ACFF00BFC7E770B5EE
:100C400005460C465E48008800F0010000B170BD0A
:100C5000142C02D36848844200D9F8E7684805603C
:100C600000685C490968884236D06548006859497F
:100C70000968884203DD01205549087002E0002020
:100C800053490870524800785C4908605C4909681B
:100C9000504A1268881A002801DB014600E04142F0
:100CA000482291FBF2F1484A116055490968494AC6
:100CB0001268881A002801DB014600E04142482200
:100CC00091FBF2F302FB1311404A117000203D49E1
:100CD00008702046FFF75DFF00BFB8E710B5044677
:100CE00021460020FFF7ABFF21460020FFF7DDFD86
:100CF00010BD70B506460C46154629463046FFF72E
:100D00009EFF29462046FFF7D0FD70BD2DE9F04734
:100D100004468946204604F062FA07462E4A2F4BC5
:100D200004F0D6F8054604F02BFA824649465046B0
:100D3000FFF785FFBDE8F0872DE9F04704468946B7
:100D4000204604F04CFA0746234A244B04F0C0F82E
:100D5000054604F015FA824649465046FFF7A5FDC0
:100D6000BDE8F0872DE9F04704468946204604F0A7
:100D700036FA0746184A194B04F0AAF8054604F05B
:100D8000FFF98246012249465046FFF71AFFBDE8A7
:100D9000F0872DE9F04704468946204604F01FFA03
:100DA00007460D4A0D4B04F093F8054604F0E8F9A8
:100DB0008246012249465046FFF739FDBDE8F087DB
:100DC000002C0140390000203C00002038000020A9
:100DD00048000020440000207B14AE47E17A443FE5
:100DE00058D6E1B5B1C7B0CEBBD6C33D2566636D5D
:100DF0000D0A000040420F00A0860100B00123420E
:100E00004000002010B56FF0040000F074F92E4887
:100E100000682E49B0FBF1F02D49087008460078B3
:100E200000EB4001C1EBC0104FF6FF7101EAC000BA
:100E30002849088010BD0146254A12784A434FF0E0
:100E4000E0235A6100229A611A46126942F00102B7
:100E50001A6100BF4FF0E022106900F001021AB1E0
:100E600000F48032002AF5D04FF0E022126922F01F
:100E700001024FF0E0231A6100229A617047014697
:100E8000144A12884A434FF0E0235A6100229A61C3
:100E90001A46126942F001021A6100BF4FF0E022C7
:100EA000106900F001021AB100F48032002AF5D076
:100EB0004FF0E022126922F001024FF0E0231A61A4
:100EC00000229A61704700000000002000127A00A2
:100ED0004A0000204C000020014600BF704700BFC0
:100EE000494A128802F04002002AF9D0C2B2464BA9
:100EF0001B1D1A80704710B586B00446012144F2CC
:100F0000040000F033FC4FF40070ADF8140003202F
:100F10008DF8160018208DF8170005A93B4800F041
:100F200069F94FF48060ADF8140004208DF81700C3
:100F300005A9364800F05EF925208DF80000032051
:100F40008DF801008DF8020001208DF8030068463D
:100F500000F087F801940020ADF80800ADF80A0011
:100F6000ADF80C00ADF810000C20ADF80E0001A992
:100F7000254801F0B0FB012240F22551224801F042
:100F800042FC0121204801F032FC06B010BD10B532
:100F900040F225511C4801F01BFD10B31A4801F026
:100FA00097FCC4B21A48008800F40040C8B9184839
:100FB000008800F4804060B10A2C03D0002014495E
:100FC000088020E01248008840F400401049088062
:100FD00019E00D2C06D10E48008840F480400C49E1
:100FE000088010E00A480088C0F30D0009490C543D
:100FF00007480088401C0649088008460088C72822
:1010000001DD0020088010BD0038014000080140CB
:1010100054000020CC0100200948804709480047BF
:10102000FEE7FEE7FEE7FEE7FEE7FEE7FEE7FEE798
:10103000FEE7FEE704480549054A064B70470000F5
:10104000D303000831010008F8020020F80800204E
:10105000F8040020F804002031490143314A1160AE
:10106000704770B5002100230F22C47804B32D4CC3
:10107000246804F4E064C4F5E064210AC1F10403C7
:10108000CA40447804FA03F18478144021430901EA
:10109000254C0678A155047804F01F050124AC40C6
:1010A00005786D11AD0005F1E025C5F8004109E0B6
:1010B000047804F01F050124AC401C4D067876111D
:1010C00045F8264070BD1A4A0A400243154B1B1FC3
:1010D0001A60704739B1134A121D12680243114B4E
:1010E0001B1D1A6006E00F4A121D126882430D4B49
:1010F0001B1D1A607047042808D14FF0E0210969D0
:1011000041F004014FF0E022116107E04FF0E021CF
:10111000096921F004014FF0E022116170470000DD
:101120000000FA050CED00E000E400E080E100E0E2
:1011300080FFFF1F10B50446CC48844208D101212E
:10114000042000F02DFB0021042000F029FB46E0E4
:10115000C748844208D10121082000F021FB00216A
:10116000082000F01DFB3AE0C248844208D101216A
:10117000102000F015FB0021102000F011FB2EE0E4
:10118000BD48844208D10121202000F009FB002144
:10119000202000F005FB22E0B848844208D101215C
:1011A000402000F0FDFA0021402000F0F9FA16E09E
:1011B000B348844208D10121802000F0F1FA0021D7
:1011C000802000F0EDFA0AE0AE48844207D1012108
:1011D000801500F0E5FA0021A01500F0E1FA10BD3D
:1011E00010B50121084600F0DBFA0021012000F0D3
:1011F000D7FA10BD2DE9F041024600250026002057
:1012000000230024002791F803C00CF00F0591F88B
:1012100003C00CF0100CBCF1000F03D091F802C019
:101220004CEA050591F800C0BCF1000F31D01468FC
:1012300000202BE04FF0010C0CFA00F3B1F800C0D5
:101240000CEA03069E4220D183004FF00F0C0CFAEB
:1012500003F7BC4305FA03FC4CEA040491F803C00D
:10126000BCF1280F06D14FF0010C0CFA00FCC2F8BB
:1012700014C00AE091F803C0BCF1480F05D14FF04B
:10128000010C0CFA00FCC2F810C0401C0828D1D395
:101290001460B1F800C0BCF1FF0F34DD54680020C9
:1012A0002EE000F1080C4FF0010808FA0CF3B1F839
:1012B00000C00CEA03069E4221D183004FF00F0CC0
:1012C0000CFA03F7BC4305FA03FC4CEA040491F85A
:1012D00003C0BCF1280F05D100F1080C08FA0CF886
:1012E000C2F8148091F803C0BCF1480F07D100F197
:1012F000080C4FF0010808FA0CF8C2F81080401CE6
:101300000828CED35460BDE8F0814FF6FF7101800C
:10131000022181700421C170704702460020936849
:101320000B400BB1012000E00020704701468868A7
:1013300080B2704702460020D3680B400BB10120F9
:1013400000E0002070470146C86880B27047016124
:101350007047416170470AB1016100E04161704727
:10136000C16070474FF480320A43826181618261BB
:1013700082698269704702460020434B18684FF625
:101380008073184040EA021008433F4B18607047D2
:101390003E49C8617047F0B50A4600230024002189
:1013A000002500F00046B6F1004F02D1364EF1693B
:1013B00001E0354E7168C0F3034583B200F4401676
:1013C000B6F5401F08D121F070612F4E766826F0E7
:1013D00070662D4F7E6012E000F48016B6F5801F17
:1013E00006D1032606FA05F4A14341F0706106E038
:1013F000460D360103FA06F6B14341F0706122B1A1
:10140000460D360103FA06F6314300F00046B6F108
:10141000004F02D11C4EF16101E01B4E7160F0BD26
:1014200030B500228B071C0F0F2303FA04F2164B72
:1014300008338C1053F824309343134C08348D1028
:1014400044F8253023468C1053F824308C07240FA1
:1014500000FA04F423430C4C08348D1044F8253072
:1014600030BD0A49DC3108607047000000080140C7
:10147000000C014000100140001401400018014020
:10148000001C0140002001400000014000002042FB
:10149000DF48006840F00100DD4908600846406808
:1014A000DC490840DA49486008460068DA490840E3
:1014B000D74908600846006820F480200860084684
:1014C000406820F4FE0048604FF41F0088607047B9
:1014D000CF49096821F48031CD4A1160114609686D
:1014E00021F480211160B0F5803F03D0B0F5802F4A
:1014F0000ED106E0C649096841F48031C44A116042
:1015000007E0C349096841F4A021C14A116000E025
:1015100000BF00BF704710B5014600220023002025
:101520004A11012A02D1BA4C236806E0022A02D1EC
:10153000B74C236A01E0B64C636A01F01F02012434
:1015400094401C400CB1012000E0002010BD38B5D3
:10155000002000900024002500BF3120FFF7DBFFB2
:1015600005460098401C00900098B0F5A06F01D08F
:10157000002DF2D03120FFF7CEFF08B1012400E0AA
:101580000024204638BD01460020A14A106820F002
:10159000F80040EAC10010607047A0490860704739
:1015A000024600209A4B586820F47C1042EA01035E
:1015B0001843974B58607047984908667047014632
:1015C0000020934A506820F00300084350607047A1
:1015D0008F48406800F00C007047014600208C4A9C
:1015E000506820F0F000084350607047014600202A
:1015F000874A506820F4E060084350607047014615
:101600000020834A506820F4605040EAC1005060D6
:10161000704729B17E4A527A02437D4B5A7204E0E8
:101620007B4A527A82437A4B5A7270477B49D8314F
:101630000860704701460020754A506820F4404019
:101640000843506070470021714A20321170704A7F
:1016500082F82010012802D004280AD104E00121D8
:101660006B4A2032117005E00521694A2032117061
:1016700000E000BF00BF70476949086070476449D7
:10168000096A0143624A116270476549443908603A
:10169000704730B500210022002400235C4D6D68A6
:1016A00005F00C0121B1042905D0082923D105E05A
:1016B0005C4D056022E05B4D05601FE0544D6D6898
:1016C00005F47012524D6D6805F48034022505EB67
:1016D00092421CB9544D554305600BE04C4D6D686A
:1016E00005F400351DB1504D5543056002E04D4DE8
:1016F0005543056002E04B4D056000BF00BF444DFF
:101700006D6805F0F0010909484D6B5C0568DD4026
:1017100045603F4D6D6805F4E061090A434D6B5C1F
:101720004568DD4085603A4D6D6805F46051C90A31
:101730003E4D6B5C4568DD40C560354D6D6805F418
:101740004041890B3A4D6B5CC568B5FBF3F505610B
:1017500030BD29B12E4A526902432D4B5A6104E033
:101760002B4A526982432A4B5A61704729B1284A51
:1017700092690243264B9A6104E0254A92698243AA
:10178000234B9A61704729B1214AD2690243204B09
:10179000DA6104E01E4AD26982431D4BDA61704768
:1017A00029B11B4AD2680243194BDA6004E0184A97
:1017B000D2688243164BDA60704729B1144A126925
:1017C0000243134B1A6104E0114A12698243104B21
:1017D0001A61704712494039086070470F49C86460
:1017E00070470B49C87170470948406A40F08070E3
:1017F00007494862704701460020054A92680A403E
:101800000AB1012000E0002070470149887270474A
:10181000001002400000FFF8FFFFF6FE0000424209
:101820008004424200127A0000093D005600002068
:101830006600002010B50446FE48844208D101210C
:10184000C014FFF7ADFF0021E014FFF7A9FFC4E0CB
:10185000B4F1804F08D101210846FFF7AEFF002107
:101860000120FFF7AAFFB8E0F348844208D1012124
:101870000220FFF7A2FF00210220FFF79EFFACE04D
:10188000EE48844208D101210420FFF796FF002191
:101890000420FFF792FFA0E0E948844208D101212B
:1018A0000820FFF78AFF00210820FFF786FF94E059
:1018B000E448844208D101211020FFF77EFF002177
:1018C0001020FFF77AFF88E0DF48844208D1012129
:1018D0002020FFF772FF00212020FFF76EFF7CE041
:1018E000DA48844208D101214014FFF759FF002152
:1018F0006014FFF755FF70E0D548844209D10121FB
:10190000C804FFF74DFF00214FF40020FFF748FF08
:1019100063E0D048844209D101210805FFF740FF68
:1019200000214FF48010FFF73BFF56E0CA48844285
:1019300009D101214805FFF733FF00214FF40010C2
:10194000FFF72EFF49E0C548844208D1012140201D
:10195000FFF733FF00214020FFF72FFF3DE0C04895
:10196000844208D101218020FFF727FF0021802039
:10197000FFF723FF31E0BB48844208D101218015E5
:10198000FFF71BFF0021A015FFF717FF25E0B64862
:10199000844209D101210804FFF702FF00214FF41E
:1019A0008030FFF7FDFE18E0B048844209D10121E4
:1019B0004804FFF7F5FE00214FF40030FFF7F0FE7A
:1019C0000BE0AB48844208D101218804FFF7E8FE10
:1019D00000214FF48020FFF7E3FE10BD00220288B3
:1019E000944B98420ED0994B98420BD0B0F1804F57
:1019F00008D0914B984205D0904B984202D0904B22
:101A0000984204D14FF68F731A404B881A438D4B7E
:101A1000984207D08C4B984204D04FF6FF431A40AF
:101A2000CB881A4302808B8883850B880385814B82
:101A300098420BD0854B984208D08B4B984205D0EA
:101A40008A4B984202D08A4B984201D10B7A038686
:101A500001238382704770B5002400220023058C87
:101A60004FF6FE7635400584028C8388048B4FF652
:101A70008F752C40B51E2C400D882C43751E2A40B6
:101A80000D892A434D882A436A4DA8420BD06F4DD9
:101A9000A84208D0744DA84205D0744DA84202D087
:101AA000734DA84213D14FF6F7752A404D892A434A
:101AB0004FF6FB752A408D882A434FF6FF652B4071
:101AC0004FF6FF552B408D892B43CD892B438380C7
:101AD0000483CD888586028470BD70B50024002201
:101AE0000023058C4FF6EF7635400584028C838801
:101AF000048B48F6FF752C404FF6FF452C400D88AF
:101B00004FF6FF7606EA05252C434FF6DF752A408F
:101B10000D8906EA05152A434D8806EA05152A436C
:101B2000444DA84202D0494DA8421DD14FF67F75C1
:101B30002A404D894FF6FF7606EA05152A434FF6EF
:101B4000BF752A408D8806EA05152A434FF6FF35F2
:101B50002B404FF2FF752B408D8906EA85052B43FC
:101B6000CD8906EA85052B4383800483CD880587CC
:101B7000028470BD70B5002400220023058C4FF64E
:101B8000FF6635400584028C8388848B4FF68F7501
:101B90002C404FF6FC752C400D882C434FF6FF551A
:101BA0002A400D894FF6FF7606EA05252A434D881F
:101BB00006EA05252A431F4DA84202D0234DA8421C
:101BC0001DD14FF2FF752A404D894FF6FF7606EA88
:101BD00005252A434FF6FF352A408D8806EA05255C
:101BE0002A434EF6FF752B404DF6FF752B408D892D
:101BF00006EA05152B43CD8906EA05152B4383809C
:101C00008483CD888587028470BD70B5002200234F
:101C10000024058C4EF6FF7635400584038C8488BD
:101C2000828B48F6FF752A404FF6FF452A400D8803
:101C300020E00000002C01400004004000080040AB
:101C4000000C00400010004000140040003401402F
:101C5000004C014000500140005401400018004079
:101C6000001C0040002000400040014000440140B2
:101C7000004801404FF6FF7606EA05252A434DF657
:101C8000FF752B400D8906EA05352B434D8806EA82
:101C900005352B43FA4DA84202D0FA4DA84208D18F
:101CA0004BF6FF752C408D894FF6FF7606EA8515B9
:101CB0002C4384808283CD88A0F84050038470BD7B
:101CC000828B4FF2FF331A408283828B4FF6FF7371
:101CD00003EA01231A4382837047F0B50C46154688
:101CE000002200210026078C4EF6FF7C07EA0C0735
:101CF0000784828B018C4FF6FF7707EA043640F6A3
:101D0000FF473A404FF6FF7707EA05273A434FF679
:101D1000FF7707EA03373A43D94FB8420ED0D94F7D
:101D2000B8420BD0B0F1804F08D0D74FB84205D0A1
:101D3000D64FB84202D0D64FB84206D14DF6FF7703
:101D4000394046F48057394305E047F6FF5739409C
:101D500044F48057394382830184F0BD828B4FF66F
:101D6000F3731A408283828B0A4382837047F0B5F3
:101D70000C461546002200210026078C4FF6FF6C0A
:101D800007EA0C070784828B018C4FF6FF7707EA7E
:101D900004264FF60C773A404FF6FF7707EA031711
:101DA0002F433A43B64FB8420ED0B64FB8420BD08D
:101DB000B0F1804F08D0B44FB84205D0B34FB8420D
:101DC00002D0B34FB84206D14FF6FF57394046F420
:101DD0008077394305E04FF2FF57394044F480776C
:101DE000394382830184F0BD028B4FF2FF331A40E6
:101DF0000283028B4FF6FF7303EA01231A43028327
:101E00007047F0B50C461546002200210026078CCD
:101E10004FF6EF7C07EA0C070784028B018C4FF624
:101E2000FF7707EA041640F6FF473A404FF6FF7780
:101E300007EA03373A434FF6FF7707EA05273A43A5
:101E40008F4FB8420ED08F4FB8420BD0B0F1804FB9
:101E500008D08D4FB84205D08C4FB84202D08C4F7D
:101E6000B84206D14FF6DF77394046F010073943C4
:101E700005E04FF65F77394044F01007394302839D
:101E80000184F0BD028B4FF6F3731A400283028B7C
:101E90000A4302837047F0B50C4615460022002124
:101EA000068C4FF6FE773E400684028B018C4FF67F
:101EB0000C7632407E1C06EA03162E433243704EE7
:101EC000B0420ED06F4EB0420BD0B0F1804F08D070
:101ED0006D4EB04205D06D4EB04202D06C4EB04255
:101EE00006D14FF6FD76314044F00106314305E05E
:101EF0004FF6F576314044F0010631430283018408
:101F0000F0BD70B505460C465D4885420ED05D4873
:101F100085420BD0B5F1804F08D05B48854205D093
:101F20005A48854202D05A48854200D100E000BF9D
:101F3000208850B92389A28861882846FFF7ABFF23
:101F4000E1882846FFF79EFF25E0208804280AD173
:101F50002389A28861882846FFF753FFE188284635
:101F6000FFF742FF17E0208808280AD12389A288BA
:101F700061882846FFF7FBFEE1882846FFF7EEFE62
:101F800009E02389A28861882846FFF7A6FEE18838
:101F90002846FFF795FE70BD2DE9F04105460C4639
:101FA00000260127608808B9022600E00026A088E4
:101FB000012801D1022700E001272088A0B9238948
:101FC000A28861882846FFF766FFE1882846FFF768
:101FD00059FF23893A4631462846FFF712FFE18828
:101FE0002846FFF701FF13E02389A288618828466D
:101FF000FFF707FFE1882846FFF7F6FE23893A46F8
:1020000031462846FFF747FFE1882846FFF73AFFA9
:10201000BDE8F0810A884B881A438B881A43CB8825
:102020001A430B891A434B891A438B891A43A0F828
:10203000442070474FF6FF71818000210180C180EC
:102040004180017270470021018041808180C18000
:10205000018141818181C1817047002101804180DE
:10206000012181800021C180018170470021018010
:1020700041808180C1800181418181817047000060
:10208000002C0140003401400004004000080040E2
:10209000000C004021B1028842F00102028004E0FD
:1020A00002884FF6FE731A400280704731B1B0F8D3
:1020B000442042F40042A0F8442005E0B0F8442057
:1020C000C2F30E02A0F8442070471AB183890B4373
:1020D000838102E083898B438381704781827047CB
:1020E00041EA0203A0F8483070471AB183890B43D4
:1020F000838102E083898B438381704701894FF696
:10210000F8721140018170470A46002101894FF69B
:102110008F73194011430181704730B504460D4655
:1021200029462046FFF7F0FF208940F00700208174
:1021300030BD2DE9F04104460D4616461F46602D80
:1021400006D13B46012231462046FFF75AFE05E004
:102150003B46012231462046FFF79DFE2946204698
:10216000FFF7D2FF208940F007002081BDE8F08111
:1021700030B50C4600210189C9B24FF6FF7505EA5A
:102180000325154325432943018130BD2DE9F04145
:1021900005460E4617469846002443463A463146C1
:1021A0002846FFF7E5FF2C894FF6F870044044F00D
:1021B00007044FF68F70044044F070042C81BDE892
:1021C000F081F0B504460D4616461F463B463246A2
:1021D00029462046FFF7CCFF208940F4804020812B
:1021E000F0BD0185828270470A46002101884FF6C2
:1021F0008F731940114301807047F0B50C461546A6
:102200001E460021002200230189028B038C4FF619
:10221000F877394021434FF6FC473A4040F2011726
:102220003A434FF6DD773B404FF6FF7707EA061754
:102230002F433B43018102830384F0BD0A46002102
:10224000018B4FF68F7319401143018370470A4683
:102250000021018B48F6FF7319404FF6FF7303EA24
:1022600002231943018370470A460021818B4FF6F0
:102270008F7319401143818370470A460021818B77
:1022800048F6FF7319404FF6FF7303EA0223194320
:102290008183704721B1028842F08002028004E00D
:1022A00002884FF67F731A400280704721B18288FE
:1022B00042F00402828004E082884FF6FB731A40E9
:1022C0008280704721B1828842F00802828004E057
:1022D00082884FF6F7731A408280704721B1828856
:1022E00042F00102828004E082884FF6FE731A40B9
:1022F000828070470A460021018B4FF6F773194020
:102300001143018370470A460021018B4FF2FF738E
:1023100019404FF6FF7303EA022319430183704704
:102320000A460021818B4FF6F773194011438183D0
:1023300070470A460021818B4FF2FF7319404FF618
:10234000FF7303EA02231943818370470A46002181
:10235000018B4FF6FB7319401143018370470A4606
:102360000021018B4FF6FF3319404FF6FF7303EA4C
:1023700002231943018370470A460021818B4FF6DF
:10238000FB7319401143818370470A460021818BFA
:102390004FF6FF3319404FF6FF7303EA0223194348
:1023A000818370470A460021018B4FF67F731940E5
:1023B0001143018370470A460021018BC1F30E01CE
:1023C0004FF6FF7303EA02231943018370470A465D
:1023D0000021818B4FF67F73194011438183704731
:1023E0000A460021818BC1F30E014FF6FF7303EA09
:1023F00002231943818370470A460021018C4FF65E
:10240000FD7319401143018470470A460021018C75
:102410004FF6F77319401143018470470A460021B3
:10242000018C4FF6DF7319404FF6FF7303EA021376
:102430001943018470470A460021018C4FF67F73CF
:1024400019404FF6FF7303EA0213194301847047E2
:102450000A460021018C4FF6FF5319404FF6FF73D7
:1024600003EA02231943018470470A460021018CC4
:102470004FF2FF7319404FF6FF7303EA022319432B
:10248000018470470A460021018C4DF6FF73194004
:102490004FF6FF7303EA023319430184704730B5E6
:1024A000002301248C40A3B2048C9C430484048C3C
:1024B00002FA01F5ADB22C43048430BD30B50023DF
:1024C00004248C40A3B2048C9C430484048C02FA40
:1024D00001F5ADB22C43048430BD70B50346002035
:1024E00000241846183001258D40ACB21D8CA54340
:1024F0001D8409B1082909D100EB6100056825F0A8
:10250000700505600568154305600EE00D1FC5F3F5
:102510004E052844056825F4E045056005684FF63A
:10252000FF7606EA02263543056070BD21B10288B8
:1025300042F00202028004E002884FF6FD731A4066
:102540000280704721B1028842F00402028004E058
:1025500002884FF6FB731A400280704721B18288CF
:1025600042F08002828004E082884FF67F731A4036
:102570008280704702884FF6F7731A400280028803
:102580000A430280704782884FF68F731A40828018
:1025900082880A438280704702894FF6F8731A4096
:1025A000028102890A430281704702894FF67F73D4
:1025B0001A40028102890A43028170478184704770
:1025C0008185704781867047018770478187704792
:1025D000A0F84010704702884FF6FF431A4002806F
:1025E00002880A43028070470146888E7047014680
:1025F000088F70470146888F70470146B1F8400048
:1026000070470146888C70470146088D7047024626
:102610000020138A0B400BB1012000E0002070471E
:10262000CA430282704730B50246002000230024CE
:10263000158A05EA0103958905EA010413B10CB175
:10264000012000E0002030BDCA4302827047000034
:1026500010B50446FB48844209D101218803FFF7E5
:102660009FF800214FF48040FFF79AF832E0F648D7
:10267000844209D101214804FFF79FF800214FF45B
:102680000030FFF79AF825E0F048844209D1012193
:102690008804FFF792F800214FF48020FFF78DF8AF
:1026A00018E0EB48844209D10121C804FFF785F8FE
:1026B00000214FF40020FFF780F80BE0E54884424A
:1026C00008D101210805FFF778F800214FF48010A8
:1026D000FFF773F810BD2DE9F04786B005460E46AA
:1026E0000024A24600BFA1460027B08900B100BF68
:1026F0002F462C8A4CF6FF700440F08804432C824D
:10270000AC894EF6F3100440B088318908437189D2
:1027100008430443AC81AC8A4FF6FF400440B089C3
:102720000443AC8201A8FEF7B4FFC648874202D139
:10273000DDF810A001E0DDF80CA0A88900F400404D
:1027400040B10AEBCA0000EB0A1031684900B0FB47
:10275000F1F807E00AEBCA0000EB0A1031688900C3
:10276000B0FBF1F86420B8FBF0F00401200964210B
:1027700001FB1089A88900F4004040B1322000EB31
:10278000C900B0FBF1F000F00700044308E032207C
:1027900000EB09106421B0FBF1F000F00F000443DE
:1027A0002C8106B0BDE8F0874FF41651016000217E
:1027B0008180C18001810C2141810021818170478C
:1027C00010B502460020108A4FF2FF0318400B8814
:1027D0004C8823438C882343CC882343184310829E
:1027E00010BD0021018041808180C180704721B1EE
:1027F000828942F40052828104E082894DF6FF739F
:102800001A4082817047F0B5034600240026002557
:10281000002040F66A17B94200D100BF1846C1F344
:10282000421401F01F06012707FA06F5012C01D119
:102830000C3004E0022C01D1103000E014301AB149
:1028400007682F43076002E00768AF430760F0BDE9
:102850001AB1838A0B43838202E0838A8B4383828B
:102860007047028A4FF6F0731A400282028A0A43C6
:102870000282704782894FF2FF731A4082818289F7
:102880000A438281704721B1828942F0020282812B
:1028900004E082894FF6FD731A4082817047028AF4
:1028A0004FF6DF731A400282028A0A43028270479F
:1028B00021B1028A42F48042028204E0028A4BF68D
:1028C000FF731A4002827047C1F30802828070478A
:1028D00001468888C0F308007047818941F00101F2
:1028E00081817047028BD2B20283028B42EA0122BD
:1028F00002837047028B02F47F420283028B0A43F9
:102900000283704721B1828A42F02002828204E071
:10291000828A4FF6DF731A408282704721B1828A21
:1029200042F01002828204E0828A4FF6EF731A406E
:102930008282704721B1828A42F00802828204E0DA
:10294000828A4FF6F7731A408282704721B18289DA
:1029500042F40042828103E08289C2F30E02828146
:10296000704721B1828A42F40062828204E0828A46
:102970004FF2FF731A4082827047828A4FF6FB73D0
:102980001A408282828A0A438282704721B1828AF7
:1029900042F00202828204E0828A4FF6FD731A40FE
:1029A0008282704702460020B1F5007F00D100BF4F
:1029B00013880B400BB1012000E00020704701F4A8
:1029C0000072B2F5007F00D100BFCA430280704799
:1029D00070B50246002400230025002040F66A1648
:1029E000B14200D100BFC1F3421501F01F0301261F
:1029F00006FA03F3012D02D19689334006E0022D39
:102A000002D1168A334001E0968A33400C12012627
:102A100006FA04F41688344013B10CB1012000E02A
:102A2000002070BD10B50022002340F66A14A142B8
:102A300000D100BF0A1201249440A3B2DC430480F9
:102A400010BD000000380140004400400048004034
:102A5000004C00400050004010B58CB004461E23CE
:102A60000BAA03A9204600F0ABFE0090009810B11D
:102A700001200CB010BD9DF82C00044400200B90E8
:102A80000EE040489DF82C2050F8221003A800F0DA
:102A9000FFFD00B908E09DF82C00401CC0B20B906F
:102AA0009DF82C000728ECD300BF9DF82C000728C8
:102AB00063D2DFE800F004053C5E6564630000BF9C
:102AC00031A001F07BF831A001F078F83FA001F0CF
:102AD00075F84EA001F072F85CA001F06FF86BA0E1
:102AE00001F06CF879A001F069F886A001F066F8B1
:102AF0008BA001F063F890A001F060F894A001F0C1
:102B00005DF899A001F05AF89EA001F057F8A4A032
:102B100001F054F8B0A001F051F8BDA001F04EF85A
:102B2000C8A001F04BF8D4A001F048F89AE216A032
:102B300001F044F8E0A001F041F800200B900EE015
:102B4000ED4800689DF82C2000EBC2004168EBA026
:102B500001F034F89DF82C00401CC0B20B90E64800
:102B6000007D9DF82C108842EADC07A001F026F8D1
:102B700078E205A001F022F8C4E171E245E219E231
:102B8000ECE100006C0000200D0A00002D2D2D2D21
:102B90002D2D2D2D2D2D2D2D2D2D2D2D2D2D2D2D65
:102BA0002D2D2D2D55534D4152542056332E312D60
:102BB0002D2D2D2D2D2D2D2D2D2D2D2D2D2D2D2D45
:102BC0002D2D2D2D2D2D2D200D0A00002020202013
:102BD00055534D415254CAC7D3C9414C49454E542F
:102BE000454BBFAAB7A2B5C4D2BBB8F6C1E9C7C9A5
:102BF000B5C4B4AEBFDAB5F7CAD4BBA5BDBBD7E97F
:102C0000BCFE2CCDA8B9FD200D0A0000CBFC2CC4C5
:102C1000E3BFC9D2D4CDA8B9FDB4AEBFDAD6FACAE3
:102C2000D6B5F7D3C3B3CCD0F2C0EFC3E6B5C4C8B2
:102C3000CEBACEBAAFCAFD2CB2A2D6B4D0D02ED264
:102C4000F2B4CB2CC4E3BFC90D0A0000D2D4CBE64A
:102C5000D2E2B8FCB8C4BAAFCAFDB5C4CAE4C8EB86
:102C6000B2CECAFD28D6A7B3D6CAFDD7D6283130F2
:102C70002F3136BDF8D6C629A1A2D7D6B7FBB4AE40
:102C8000A1A2BAAFCAFDC8EB0D0A0000BFDAB5D8E1
:102C9000D6B7B5C8D7F7CEAAB2CECAFD292CB5A5EE
:102CA000B8F6BAAFCAFDD7EEB6E0D6A7B3D6313084
:102CB000B8F6CAE4C8EBB2CECAFD2CB2A2D6A7B30E
:102CC000D6BAAFCAFDB7B5200D0A0000BBD8D6B53D
:102CD000CFD4CABE2ED0C2D4F6B2CECAFDCFD4CA8B
:102CE000BEBDF8D6C6C9E8D6C3B9A6C4DC2CD0C2CE
:102CF000D4F6BDF8D6C6D7AABBBBB9A6C4DC2E0D88
:102D00000A000000BCBCCAF5D6A7B3D63A777777DD
:102D10002E6F70656E6564762E636F6D0D0A000010
:102D200055534D415254D3D037B8F6CFB5CDB3C378
:102D3000FCC1EE3A0D0A00003F3A2020202020205E
:102D4000BBF1C8A1B0EFD6FAD0C5CFA20D0A0000E2
:102D500068656C703A202020BBF1C8A1B0EFD6FAAC
:102D6000D0C5CFA20D0A00006C6973743A202020F0
:102D7000BFC9D3C3B5C4BAAFCAFDC1D0B1ED0D0A46
:102D80000A00000069643A2020202020BFC9D3C374
:102D9000BAAFCAFDB5C44944C1D0B1ED0D0A0A00AD
:102DA0006865783A20202020B2CECAFD3136BDF8C1
:102DB000D6C6CFD4CABE2CBAF3B8FABFD5B8F12B59
:102DC000CAFDD7D6BCB4D6B4D0D0BDF8D6C6D7AA23
:102DD000BBBB0D0A0A0000006465633A2020202076
:102DE000B2CECAFD3130BDF8D6C6CFD4CABE2CBAD9
:102DF000F3B8FABFD5B8F12BCAFDD7D6BCB4D6B458
:102E0000D0D0BDF8D6C6D7AABBBB0D0A0A000000B9
:102E100072756E74696D653A312CBFAAC6F4BAAF8B
:102E2000CAFDD4CBD0D0BCC6CAB13B302CB9D8B1C6
:102E3000D5BAAFCAFDD4CBD0D0BCC6CAB13B0D0AFF
:102E40000A000000C7EBB0B4D5D5B3CCD0F2B1E0E6
:102E5000D0B4B8F1CABDCAE4C8EBBAAFCAFDC3FB6F
:102E6000BCB0B2CECAFDB2A2D2D4BBD8B3B5BCFC02
:102E7000BDE1CAF82E0D0A002D2D2D2D2D2D2D2D45
:102E80002D2D2D2D2D2D2D2D2D2D2D2D2D2D2D2D72
:102E90002D2D414C49454E54454B2D2D2D2D2D2D7D
:102EA0002D2D2D2D2D2D2D2D2D2D2D2D2D2D2D2D52
:102EB0002D2D2D200D0A00002D2D2D2D2D2D2D2DEC
:102EC0002D2D2D2D2D2D2D2D2D2D2D2D2D2D2D2D32
:102ED0002DBAAFCAFDC7E5B5A52D2D2D2D2D2D2D54
:102EE0002D2D2D2D2D2D2D2D2D2D2D2D2D2D2D2D12
:102EF0002D2D2D2D200D0A00D800002025730D0A40
:102F000000000000EFA000F059FE00200B901AE036
:102F1000FC4909689DF82C2001EBC20101AB02AA13
:102F2000486803A900F072FCF64800689DF82C1070
:102F300050F8312003A9F4A000F040FE9DF82C00C9
:102F4000401CC0B20B90EF48007D9DF82C108842C9
:102F5000DEDCAFF2CC3000F031FE83E0AFF2D830EF
:102F600000F02CFE0BAA03A9204600F02BFD9DF8D3
:102F70002C00C8B9694603A800F0BDFB0B909DF872
:102F80002C0020B9E5A0009900F018FE0EE09DF895
:102F90002C00042801D002206BE5E3A000F00EFE17
:102FA0000120D849C87501E0022062E5DDA000F0EB
:102FB00005FE57E0DBA000F001FE0BAA03A92046A6
:102FC00000F000FD9DF82C00C8B9694603A800F088
:102FD00092FB0B909DF82C0020B9D8A0009900F02E
:102FE000EDFD0EE09DF82C00042801D0022040E504
:102FF000D5A000F0E3FD0020C249C87501E0022021
:1030000037E5C8A000F0DAFD2CE0C6A000F0D6FD40
:103010000BAA03A9204600F0D5FC9DF82C00C8B9E6
:10302000694603A800F067FB0B909DF82C0078B967
:10303000B449009881F8EC00084690F8EC0018B10B
:10304000C6A000F0BBFD07E0CBA000F0B7FD03E099
:1030500002200EE502200CE5B2A000F0AFFD01E079
:10306000012006E500BF002003E510B50121C94895
:10307000FFF7D6FA4FF6FF71C648FFF7A1FA002115
:10308000C448FFF79BFA00209E49C1F8F00010BD2C
:1030900010B50121BF48FFF7BAFA012808D19948B5
:1030A000D0F8F0004FF6FF7108449649C1F8F000DF
:1030B000B848FFF7A6FA9349D1F8F01008449149AF
:1030C000C1F8F0000846D0F8F00010BD10B501219D
:1030D000B048FFF7A8FA01280AD18A490869804751
:1030E0000021AC48FFF76AFA6421AA48FFF768FAA2
:1030F0000121A848FFF7A8FA10BD7FB505460C4688
:1031000001210420FEF73FFBADF80850ADF8044064
:103110000020ADF80A00ADF8060001A99D48FEF7B1
:103120005DFC012241219B48FEF7CFFF1E208DF858
:10313000000003208DF801008DF8020001208DF8B9
:1031400003006846FDF78DFF01219248FEF7A2FFBC
:103150007FBD10B5044604EBC40000EB041001224F
:10316000C2EB800081B24FF47A70FFF7C6FF0120F6
:103170006449C87510BD30B595B0054613AB12AAA9
:1031800009A9284600F042FB044614B1204615B0B8
:1031900030BD0020149026E05A4909689DF850205F
:1031A00001EBC20113AB11AA486801A900F02EFB84
:1031B00004460CB12046EAE709A901A800F068FA24
:1031C00060B99DF844009DF84810884201DD022056
:1031D000DDE79DF850004B4988750AE09DF85000E6
:1031E000401CC0B214904748007D9DF850108842A2
:1031F000D2DC00BF4348007D9DF85010884201D1C9
:103200000420C4E714A9284600F04DFC04460CB184
:103210002046BCE79DF850003A4948750020B6E7C3
:103220002DE9F0419AB03748847D007DA04202DC50
:103230001AB0BDE8F0813349096801EBC40106AB5F
:1032400007AA486808A900F0E1FA08A952A000F00E
:10325000B5FC0026BAE02B48008B0121B1400840A4
:10326000D8B122214EA000F0A9FC304600F00EFC9F
:1032700024492431471839464AA000F09FFC2221F6
:1032800047A000F09BFC304600F000FC1D492431B3
:10329000084410A941F826008EE0304600F0F6FB05
:1032A00018492431085810A941F826001548C07D56
:1032B00030B910A850F826103BA000F07FFC7BE04E
:1032C00074E000002D2D2D2D2D2D2D2D2D2D2D2D8E
:1032D0002D2D2D2D2D2D2D2D2D2D2D2D2DBAAFCA72
:1032E000FD204944202D2D2D2D2D2D2D2D2D2D2D25
:1032F0002D2D2D2D2D2D2D2D2D2D2D2D2D2D2D2DFE
:10330000200D0A00D800002025732069642069730D
:103310003A0D0A3058253038580D0A004845583AB9
:10332000305825580D0A00003136BDF8D6C6B2CE49
:10333000CAFDCFD4CABE210D0A0000004445433A5D
:10334000256C750D0A0000003130BDF8D6C6B2CE2E
:10335000CAFDCFD4CABE210D0A00000052756E20EE
:1033600054696D652043616C63756C6174696F6E3F
:10337000204F4E0D0A00000052756E2054696D6595
:103380002043616C63756C6174696F6E204F4646B3
:103390000D0A0000000800400D0A257328000000F7
:1033A0002563000025730000256C750010A850F8F7
:1033B000261095A000F002FC9DF81C00401EB042B3
:1033C00002D093A000F0FAFB701CC6B29DF81C005E
:1033D0008642FFF640AF8FA000F0F0FBFFF745FEFE
:1033E0008D48407D0B280DD2DFE800F0060D151E3C
:1033F00027323F4E5F7287008749096851F83400D1
:103400008047054690E0844A126852F834101098BC
:103410008847054688E0804B1B6853F83420DDE977
:103420001001904705467FE07B4F3F6857F83430E6
:1034300010A807C89847054676E0DFF8DCC1DCF83D
:1034400000C05CF8347010A80FC8B84705466BE0A0
:103450001498DFF8C4C10090DCF800C05CF8347048
:1034600010A80FC8B84705465EE0DDE91401DFF893
:10347000A8C1CDE90001DCF800C05CF8347010A8E8
:103480000FC8B84705464FE0DDE914121698DFF87B
:1034900088C1CDE900120290DCF800C05CF83470FD
:1034A00010A80FC8B84705463EE0DDE91423DDE962
:1034B0001610DFF864C1CDE90023CDE90210DCF875
:1034C00000C05CF8347010A80FC8B84705462BE060
:1034D000DDE91523DDE91710CDE90123CDE903105E
:1034E0001498DFF834C10090DCF800C05CF8347048
:1034F00010A80FC8B847054616E0DDE91623DDE938
:103500001810CDE90223CDE90410DDE91401DFF83C
:1035100008C1CDE90001DCF800C05CF8347010A8E7
:103520000FC8B847054600BF00BFFFF7B1FD9DF8C3
:10353000180001280CD13848C07D20B9294637A091
:1035400000F03CFB07E0294636A000F037FB02E024
:1035500033A000F033FB304890F8EC0088B12E48DF
:10356000D0F8F0000A21B0FBF1F201FB12072A4863
:10357000D0F8F000B0FBF1F83A4641462CA000F03C
:103580001DFB00BF54E670B53148008800F40040D0
:10359000002833D02E48057800202E4948551E4873
:1035A00081682C48884704461CB91B49C868804775
:1035B00021E02848FFF750FA0546012D00D02C469F
:1035C000CCB1012C06D0022C08D0032C0AD0042C3C
:1035D00010D10BE020A000F0F1FA0BE021A000F0E8
:1035E000EDFA07E022A000F0E9FA03E023A000F0E2
:1035F000E5FA00BF00BF00201549088070BD0146F4
:103600000868704701607047305825580000000076
:103610002C00000029000000D80000203D256C751A
:103620003B0D0A003D305825583B0D0A00000000B4
:1036300046756E6374696F6E2052756E2054696DA5
:10364000653A25642E2531646D730D0A0000000073
:1036500054000020CC010020BAAFCAFDB4EDCEF377
:10366000210D0A00B2CECAFDB4EDCEF3210D0A0041
:10367000B2CECAFDCCABB6E0210D0A00CEB4D5D295
:10368000B5BDC6A5C5E4B5C4BAAFCAFD210D0A00D3
:1036900002460AE010780B78984201D0012070476A
:1036A000107800B902E0521C491CF3E700BF00206B
:1036B000F5E706E002780A70027802B902E0401CE1
:1036C000491CF7E700BF70470146002005E00A7873
:1036D00002B903E0421CD0B2491CF8E700BF7047B2
:1036E00010B50246012000E050430B00A1F1010497
:1036F000E1B2F9D110BD2DE9F04307460E46002591
:103700004FF00A083C46002030601FE0207839283E
:1037100002DC207830280ADA2078462802DC20787B
:10372000412804DA2078582809D1012D07D12078C2
:10373000412801DB4FF01008681CC5B205E0207875
:1037400000B904E00120BDE8F083641CDEE700BF9F
:103750003C46B8F1100F0FD1032D01DA0220F2E739
:103760002078302806D16078582803D1A41CA81EE0
:10377000C5B204E00320E6E70DB90420E3E71BE04F
:103780000DB1681EC5B22078392806DC20783028B3
:1037900003DB2078A0F1300902E02078A0F137099E
:1037A00029464046FFF79CFF316809FB0010306056
:1037B000641C207800B900E0E2E700BF0020C2E707
:1037C00010B50446002010700BE020780870641CCF
:1037D000491C1078401C10701078984201DB0120C1
:1037E00010BD2078202802D020780028EDD10020BC
:1037F000087000BFF4E70146491C00E0491C087846
:10380000202801D10029F9D1087870472DE9FF4F10
:1038100085B080468946002700200490039001204F
:1038200002904FF0000B002544461DE02078202830
:1038300016D005F07F00052812DA0DB945F0800595
:1038400005F07F00042803D120782A2800D00EE05C
:10385000207805F07F010DF80100681CC5B202E078
:10386000852D00D103E0641C20780028DED100BF44
:103870008DB1002005F07F010DF80100CBA1684655
:10388000FFF706FF18B900210898017002E0012136
:103890000898017000254FF0000A444614E0641CAB
:1038A0000AF1010000F0FF0A2078202802D02078D9
:1038B0002A2809D12046FFF79EFF0646282E03D06E
:1038C0002A2E01D0CDF810A02078282802D0207808
:1038D0000028E4D14446049810B10498401C0444E4
:1038E0004FF0000A002654E0207810B94FF0010A8A
:1038F00050E02078282803D116B9781CC7B213E00D
:103900002078292808D13EB917B1781EC7B201E046
:103910004FF0010A47B93DE02078222804D10EB9C2
:10392000012000E00020064647B9207820282FD04B
:10393000207889F8000009F1010929E020782C2875
:1039400004D101200290681CC5B214E02078202820
:1039500011D0207828280ED04DB9BBF1050F06DA1A
:1039600020780DF80B000BF1010000F0FF0B02981E
:10397000401CC0B20290012F0AD10298022807D140
:103980000298401CC0B202900398401CC0B2039041
:10399000641CA9E700BF0398012809D100200DF895
:1039A0000B0082A16846FFF773FE08B90020039060
:1039B000079903980870002089F80000504609B064
:1039C000BDE8F08FF0B50346154600200022002622
:1039D000002455E01F782C2F01D104B901221F7853
:1039E000292F01D01F780FB904B94AE0002E34D135
:1039F0001F78302F02DB1F78392F11DD1F78612FE0
:103A000002DB1F78662F0BDD1F78412F02DB1F784A
:103A1000462F05DD1F78582F02D01F78782F0CD144
:103A200002B12EE01F78612F03DB1F78203F0F705B
:103A300001E01F780F70491C1FE01F78222F04D16E
:103A400002B11EE00126012417E01F78202F14D0B8
:103A50001F782C2F11D0FF2613E01F78222F00D1C2
:103A6000002402B10DE044B11F785C2F02D15B1C31
:103A7000471CF8B21F780F70491C471CF8B25B1C3A
:103A8000A8E700BF00270F702E70F0BD024600208F
:103A9000002105E0474B5B5C0344D8B24B1CD9B214
:103AA0009142F7DB70472DE9F043B5B005460F466C
:103AB0000024002604E000213E488155701CC6B257
:103AC0000A2EF8DB06E06D1C287818B9012035B005
:103AD000BDE8F08328782828F5D16D1C61E034AA70
:103AE00069462846FFF76EFF064635449DF8D0002C
:103AF00020B1012827D0FF284CD149E09DF80000D3
:103B000000B333A96846FFF7F6FD06460EB1022062
:103B1000DDE72046FFF7BAFF26490A31339A0A50FB
:103B2000A1F12400008B0121A140884321491A39C9
:103B3000088304211F480155601CC4B20A2C01DD12
:103B40000320C4E726E06846FFF7BEFD401C00F0F6
:103B5000FF082046FFF79AFF16490A3100EB0109DA
:103B600049466846FFF7A5FD12481A38018B012027
:103B7000A040014388B20F491A3908830D4800F864
:103B80000480601CC4B20A2C01DD03209FE701E021
:103B900002209CE700BF2878292801D0287800B9A6
:103BA00000E09CE700BF3C70002090E7766F6964FE
:103BB00000000000F2000020704700000FB404492C
:103BC00010B503AA029800F001FC10BC5DF814FBCC
:103BD0005000002070B5044685690068C10601D513
:103BE000302600E02026C00707D070BDD4E90121AF
:103BF00030469047206A401C20626D1EF6D570BD8D
:103C000070B5044685690078C00707D170BDD4E956
:103C1000012120209047206A401C20626D1EF6D5AD
:103C200070BD70B50C460546012A05D0287880067F
:103C300000D5EA69002302E0012305E05B1C934202
:103C400002D2E05C0028F9D1A869E618C01AA86180
:103C5000286A184428622846FFF7BCFF04E0D5E92B
:103C6000012114F8010B9047B442F8D32846FFF71E
:103C7000C7FF70BD2DE9F041064600241068752984
:103C8000314616A510D0AFF30080002802DA40427A
:103C900013A507E031688A0701D512A502E049079C
:103CA00004D511A5012401E0AFF3008000210A2210
:103CB00006F1240709E0B0FBF2FCB0FBF2F302FBD3
:103CC0001C00303078541846491C0028F3D1234694
:103CD0002A463046BDE8F04100F0FCB80000000084
:103CE0002D0000002B0000002000000070B50446ED
:103CF0000D4621461068AFF300802188090502D5E2
:103D00000F4A7A4402E00E4A7A440E32002104F14E
:103D1000240305E000F00F060009965D5E54491C7F
:103D20000028F7D120780023000704D5702D02D099
:103D300009B1022311322046BDE8704000F0CAB834
:103D4000061700002DE9F05F894604464FF0000A8F
:103D5000DFF874B1FB44C0F820A02046E168884732
:103D6000002874D0252806D0D4E901219047206A84
:103D7000401C2062F1E700265F462046E168884744
:103D80002028054607DB312D05D2781910F8200CC4
:103D900008B10643F1E7B00701D526F00406C4F8E0
:103DA0001CA00027C4F818A02A2D09D0284601F02D
:103DB00072F838B304EB8708303DC8F8185019E0A2
:103DC00059F8041B204604EB87029161E16888479B
:103DD000012F054618D1E069002820DA26F02006D8
:103DE0001DE0D8F8180000EB800005EB40003038EB
:103DF000C8F818002046E1688847054601F04BF8EE
:103E00000028EED1012F0AD02E2D08D12046E168DE
:103E100088477F1C0546022F46F02006C4DBA069B8
:103E2000002803DA404246F00106A061F00701D005
:103E300026F010066C2D0BD0682D09D04C2D39D0F2
:103E40006A2D35D0742D35D07A2D33D016E038E078
:103E5000E1682F4620468847B842054609D16C2FB5
:103E600026D04FF48060E168064320468847054627
:103E700004E06C2F1AD04FF4807006430DB3A5F107
:103E80004100192802D8203546F400664A462946E2
:103E9000204626604E46FCF7A5F980B101280BD0DC
:103EA000F61D26F0070000F1080956E74020E4E778
:103EB0008020D8E70020D6E706F104094DE7284620
:103EC00052E7206ABDE8F09FDC160000704770479B
:103ED000704770472DE9F0470D46994692460446D3
:103EE00000F124080168880604D5E06921F010017A
:103EF000216000E00120A84201DD471B00E000270F
:103F0000A1697A1902EB0900081AA0612078C0069D
:103F100002D42046FFF75EFE002608E0D4E9012126
:103F20001AF806009047206A401C761C20624E4515
:103F3000F4DB2078C0060AD52046FFF74BFE06E0EA
:103F4000D4E9012130209047206A401C2062381EAD
:103F5000A7F10107F4DC07E0D4E9012118F8050016
:103F60009047206A401C2062281EA5F10105F3DC61
:103F70002046FFF745FE2078000602D50220BDE866
:103F8000F0870120FBE770472DE9FF4F0C461E46E6
:103F90004FF0FF378BB0D2E90001DDF860800A9066
:103FA0008A46C1F30A5505B93D46002108464FF03F
:103FB0000000BAF1000F00F4400005DA00EB8000C9
:103FC0004FF4400101EA50004FEA9059B9F1010F56
:103FD00000DDB9460A9850EA4A000ED044F6105067
:103FE000A5F2FF3545432F14B8F1000F1ED07542DE
:103FF000291E1EDDC9F100021CE0B8F1010F4FF0CF
:10400000000001D0302103E0F24305E02154401CC0
:10401000B042FBDB30460022002121540B99C1F84D
:104020000880C1E900200FB0BDE8F08FBD1B6D1CFA
:10403000DEE74A4600DA694206A800F07BFA06ABE2
:1040400093E8070003AB83E8070050460A9900F0A5
:1040500053FB8DE80700A0F500501F38009003982F
:10406000002D09DD42F21F014A46084403A90390CE
:10407000684600F0B2FD08E0A0F500504A461F383F
:1040800003A90390684600F0BCFD8DE8070000041A
:10409000000C03D04FF0FF30410800E01046B8F1AB
:1040A000000F03D00022009215461EE0751E05D4B5
:1040B00000F0A2F9303262556D1EF9D5B3460122E7
:1040C000084302D000227F1C04E02078302801D170
:1040D00000227F1E002A099786D01DE0112D07DAE5
:1040E00000F08AF9303262556D1C50EA0102F5D1B8
:1040F000084302D00098C8B10EE00021681E05E018
:10410000235C625C63542254401E491C8142F7DBED
:10411000AB46A81B401E0990002004F80B000B982A
:10412000099AC0F80880C0E9002B7CE711264FF0FF
:10413000000859E72DE9F04F88460446D21D22F0C9
:10414000070191B0D1E90001CDE90A0100F08FFE2D
:1041500002460B98C00F01D02D2007E02068810790
:1041600001D52B2002E0202101EAC000032A09909A
:1041700001D0072A05DB03464146204600F09AF9A4
:104180000BE12078800601D5E06900E00620B8F157
:10419000650F814606D0B8F1660F18D0B8F1670FE9
:1041A00070D131E00020B9F1110F009001DB112333
:1041B00001E009F101030AAA01A90CA8FFF7E4FE36
:1041C000DDE90C70002609F10105834647E0012076
:1041D0004B4600904FF000470AAA01A90CA8FFF730
:1041E000D3FEDDE90DB00C995D46002610B909F14A
:1041F00001000D18B9EB050003D4C0F1FF3609F139
:104200000105A5EB09002BE0B9F1010F01DA4FF030
:1042100001090020B9F1110F0090484601DD11237A
:1042200000E003460AAA01A90CA8FFF7ADFEDDE9EC
:104230000C704D4600268346207800070AD4AB4513
:1042400000DA5D4601A8012D04DD411911F8011CB9
:10425000302907D04F4502DA17F1040F04DA0120A4
:1042600082460FE06D1EEEE7002F02DCED1B3E44A0
:1042700003E0781CA84200DD7D1CB81B00F1010A98
:104280004FF000472078000703D4AA4501DB4FF028
:10429000FF3A0021B7F1004F0DF143088DF84310AC
:1042A00024D002202B23002F01DA7F422D230A2164
:1042B000021EA0F1010000DC5FB197FBF1FC97FB4F
:1042C000F1F201FB1C7C17460CF1300C08F801CD13
:1042D000EEE7A8F1010003702188090501D5452109
:1042E00000E06521A0F1010800F8011C09980FA960
:1042F000A1EB0807FF1D00B10120411901EBEA7095
:10430000A1693844081A401EA0612078C00602D472
:104310002046FFF75FFC099828B1D4E901219047B6
:10432000206A401C20622078C00622D52046FFF774
:1043300051FC1EE0002E04DBB34502DD01A8805DC8
:1043400000E03020D4E901219047206A401C20621F
:10435000761CAAF101005FEA000A0AD100F048F8D1
:10436000C0680168405CD4E901219047206A401C84
:104370002062281EA5F10105DCDC07E0D4E901215B
:1043800018F8010B9047206A401C2062381EA7F1E4
:104390000107F3DC2046FFF733FC032011B043E6AE
:1043A00010B5436913B1AFF3008001E0FFF739FCAA
:1043B000012010BD127800F124010A7000224A7019
:1043C0000122EDE711684FF0FF32E9E7074B70B5C6
:1043D0000D467B4400F05BF80446284600F018F9CF
:1043E00010B14FF0FF3070BD204670BD09CBFFFF0C
:1043F00000487047B402002030B5B0F10A024FEA1D
:10440000900E71F100034EEA817EB0EB0E0061EB7D
:1044100091014FEA101E4EEA017E10EB0E0041EBB7
:1044200011114FEA102E4EEA016E10EB0E0041EB17
:1044300011214FEA104E4EEA014E10EB0E0041EBF7
:104440001141401841F100014FEAD00040EA4170AB
:104450004FEAD10110EB80054FEA810444EA9074E1
:1044600044EB01046D1944EB0404521BA3414FF0CB
:10447000000348BF0A3200D530BD401C41F10001A5
:1044800030BD000001694A1C02610878704700B520
:104490008FB0CDE901310021059105497944CDE97D
:1044A000031011466846FFF74DFC0FB000BD000039
:1044B000E5FFFFFF2DE9F0411F4604460326016892
:1044C000072A01F4006004DB08B116A505E016A573
:1044D00003E008B115A500E015A521F0100020604B
:1044E000A069C01EA0610FB1401EA0612046FFF769
:1044F00071FB4FB1D4E9012138469047206A401C36
:104500002062C01C206206E0206AFAE7D4E901219B
:1045100015F8010B9047761EF8D22046FFF770FB86
:10452000BDE8F0814E414E006E616E00494E46007E
:10453000696E66002DE9F047814616468AB0334819
:1045400078440DC88DE80D0030487844801C03ACD9
:104550000DC884E80D0041F69B300844372190FBDC
:10456000F1F290FBF1F5A5F1800501FB12041B3C73
:1045700002D56442012000E00020DFF890A08046D0
:104580000027FA44AAF1BE0A0DE0E00709D032463E
:10459000684607EB47010AEB810100F032FB8DE82A
:1045A000070064107F1C002CEFD1184F7F44AC3FF4
:1045B00018E0E80714D007EB04100DF1180A90E892
:1045C0000E008AE80E00C068F04201D198190890E8
:1045D000324606A903A800F014FB03AB83E80700EA
:1045E0006D10641C002DE4D132466946B8F1000F0D
:1045F00003A802D000F0F1FA01E000F002FBC9E9E3
:104600000001C9F808200AB0BDE8F087800F00005B
:10461000007B00F080007047004870479402002043
:104620007546FFF7F9FFAE4605006946534620F090
:104630000700854618B020B5FCF7FCFCBDE820401B
:104640004FF000064FF000074FF000084FF0000B4E
:1046500021F00701AC46ACE8C009ACE8C009ACE801
:10466000C009ACE8C0098D4670470446AFF300802E
:104670002046FBF7E0FD00004FF0013C50F8042B12
:1046800051F8043B9A4221D1A2EB0C03934313EA65
:10469000CC1317D150F8042B51F8043B9A4215D192
:1046A000A2EB0C03934313EACC130BD150F8042B69
:1046B00051F8043B9A4209D1A2EB0C03934313EA4D
:1046C000CC13DBD04FF00000704700BFD01A01BA06
:1046D000B1FA81F101F0180122FA01F0CB40C1F1E9
:1046E0002001DBB2C0B2C01A2CFA01F3D11A9143F7
:1046F00011EAC311E6D170475FEA400C08BF91F0A0
:10470000000F4FEA8C234FEAC12243EA51514FEA8E
:104710001C5018BF00F5F0404FEA300018BF41F0C0
:1047200000415FEA6C5C00F02980BCF1FF3F08BFEC
:1047300040F080407047130C06BF12044FF0100C7D
:104740004FF0000C130E04BF12020CF1080C130FF3
:1047500004BF12010CF1040C930F04BF92000CF182
:10476000020CD30F04BF52000CF1010C11464FF0A4
:104770000002A0F11F00A0EB0C00704711F0004FE9
:1047800008BF704731F000413FF4D5AF0B0C06BFB6
:1047900009044FF0100C4FF0000C0B0E04BF09027F
:1047A0000CF1080C0B0F04BF09010CF1040C8B0F6A
:1047B00004BF89000CF1020CCB0F04BF49000CF1BF
:1047C000010CCCF12003A0EB0C0022FA03F302FA57
:1047D0000CF241EA030100F10100704720F07F4C28
:1047E00080EA030023F07F47ACEB070303F57C531B
:1047F00000F0004003F1FF032DE980494FEA154B1B
:1048000009B44FEA144325EA0B4E24EA03480FF299
:10481000042606EB132749083E785FEA320203FBC1
:104820000667C7F5000707FB06F64FEA54374FEA5D
:10483000D64606F1020607FB066CCCF1005C4FEA97
:104840001C472CEA074C07FB06F40CFB06F504EBAF
:1048500015464FEA961634BF00204FF000404FEA4D
:10486000D13706FB07FC4FEA1C4C0CFB0BF7D21BA5
:1048700003FB0CF761EB07010CFB0EF7B0EB0740F5
:1048800072EB17420CFB08F734BFA2EB0742B2EB06
:10489000074261EB17414FEA0C444FEA910706FBD0
:1048A00007FC4FEA1C4C0CFB0BF7B0EBC74072EB5C
:1048B000573203FB0CF734BFA2EBC742B2EBC7423F
:1048C00061EB57310CFB0EF7B0EBC70072EB577280
:1048D0000CFB08F734BFA2EBC702B2EBC70261EBD7
:1048E0005771039F4FEA816141EA921104EBCC04B6
:1048F0004FEAD1374FEA826206FB07FC42EA901288
:104900004FEA80604FEA1C4C0CFB0BF7D21B03FBF9
:104910000CF761EB07010CFB0EF7B0EB074072EBF5
:1049200017420CFB08F734BFA2EB0742B2EB074279
:1049300061EB17414FEA8C554FEA910704EB9C2439
:1049400006FB07FC4FEA1C4C0CFB0BF7B0EBC74017
:1049500072EB573203FB0CF734BFA2EBC742B2EB4A
:10496000C74261EB57310CFB0EF7B0EBC70072EB9F
:1049700057720CFB08F734BFA2EBC702B2EBC702B9
:1049800061EB577115EB4C254FEA816141EA9211B9
:104990004FEA82624FEAD13742EA901206FB07FCE7
:1049A00044F100044FEA80604FEA1C4C0CFB0BF70B
:1049B000D21B03FB0CF761EB07010CFB0EF7B0EB0E
:1049C000074072EB17420CFB08F734BFA2EB07421B
:1049D000B2EB074261EB174115EB1C154FEA813131
:1049E00041EA92414FEA823242EA90424FEA8030F5
:1049F0004FEA0C7644F1000448EA03434EEA0B48C0
:104A00004FF0000EB2EB080C71EB030724BF6246B7
:104A100039464EEB0E0E4FF0000B00185241494143
:104A20004BEB0B0BB2EB080C71EB03077BF1000BAC
:104A300024BF624639464EEB0E0E4FF0000B0018B5
:104A4000524149414BEB0B0BB2EB080C71EB0307E6
:104A50007BF1000B24BF624639464EEB0E0E51EA45
:104A6000020718BF46F0010616EB0E7655F100025C
:104A700054F1000103D5BDE88901BDE80088BDE817
:104A80008901BDE80048B619524141EB0101A3F18B
:104A90000103704780807F7E7D7C7B7A7978777692
:104AA00076757473727171706F6E6E6D6C6C6B6A0B
:104AB0006A696868676666656464636362616160A9
:104AC000605F5F5E5E5D5D5C5C5B5B5A5A59595826
:104AD0005857575656555555545453535252525190
:104AE000515050504F4F4F4E4E4D4D4D4C4C4C4BE6
:104AF0004B4B4A4A4A49494948484847474747462D
:104B00004646454545444444444343434342424268
:104B100042414141002B26D4770021D01CB54FEAF9
:104B2000370703B44FF010004FF010014FF00000B2
:104B30000FBCBDE810400BF1010BBBF1010F08BF2A
:104B40005FEA170722BF12F1010211F101014FF0D4
:104B5000004143F1000300F0004043EA00007047C9
:104B6000F9D35708DAE746EA064613F1400F4FEA51
:104B700016461FDD13F1200FDFBF16430A46002142
:104B800020335B42C8D0C3F1200746EA064602FA4A
:104B900007F74FEA164646EA0706C3F1200722FA4E
:104BA00003F201FA07F721FA03F14FF0000342EA9A
:104BB0000702B1E746EA020646EA06464FEA16460B
:104BC00046EA0106BCBF46EA0646360C4FF0000333
:104BD0004FF000024FF000019EE72DE9C0489346D8
:104BE00030B491E8380007C831EA400C48BF34EAD5
:104BF000430C03D5FFF7F2FDFFF78CFFF0BCBDE8D7
:104C000000882DE9C048934630B491E8380007C8C1
:104C100010F0804F08BF13F0804F03D100F005F86B
:104C2000FFF778FFF0BCBDE8008820F07F4780EAFE
:104C3000030023F07F4C07EB0C03A3F57C5300F03B
:104C40000040A3F1FE0392F0000F00F0B38095F056
:104C5000000F00F077802DE901494FEA11404FEA3B
:104C6000144621EA004800FB06FC24EA064708FB3C
:104C700006F607FB08F800FB07F718EB06484CEBB5
:104C8000164C4FEA124B18EB07484FEA15464CEB0F
:104C9000174022EA0B4E0BFB06FC25EA06470EFBEB
:104CA00006F607FB0EFE0BFB07F71EEB064E4CEB62
:104CB000164C4FF000061EEB074E4CEB174B18EB53
:104CC0000B0840F1000018EB0E0B58EB000840F108
:104CD00000008F1A4FF000013CBFC943661B14BF90
:104CE000B5EB040C00213CBFC943F61B4FEA174447
:104CF0004EEA8E0E27EA04454FEA1C4704FB076282
:104D00002CEA074C05FB07F70CFB05F604FB0CFC33
:104D100016EB074642EB174216EB0C4642EB1C42E1
:104D20001BEB060658EB0202414146EA9E0601D5FE
:104D3000BDE80189B619524141EB0101A3F101031C
:104D4000BDE801894FEA14454FEA114724EA0546B8
:104D500021EA074C05FB07F406FB07F70CFB06F1FD
:104D600005FB0CFC11EB074144EB17444FEA1247DB
:104D700011EB0C4144EB1C4422EA074C05FB07F203
:104D800006FB07F70CFB06F605FB0CFC16EB0746CB
:104D900042EB174216EB0C4642EB1C456A1854F1E5
:104DA000000148BF7047B619524141EB0101A3F120
:104DB0000103704795F0000F37D04FEA11424FEAD8
:104DC000144721EA024624EA074C02FB07F106FBDE
:104DD00007F70CFB06F402FB0CFC14EB074441EB59
:104DE00017414FEA154714EB0C4441EB1C4125EAEF
:104DF000074C02FB07F506FB07F70CFB06F602FB68
:104E00000CFC16EB074645EB174516EB0C4645EB3D
:104E10001C42121951F1000148BF7047B6195241A6
:104E200041EB0101A3F1010370474FEA14454FEA3A
:104E3000114724EA054621EA074C05FB07F106FB6A
:104E400007F70CFB06F24FF0000605FB0CFC12EB1B
:104E5000074241EB174112EB0C4251EB1C4148BF9A
:104E60007047921841EB0101A3F10103704749001B
:104E700050EAC12018BF04204A0D18BF40F00100BD
:104E800040F2FF72B2EB515F08BF40F00200012810
:104E900008BF0520704730380A2801D2012070472A
:104EA0000020704710B500290AD00878002807D0E4
:104EB00005487844FFF7E0FB002801D0002010BD32
:104EC0000248784410BD0000FE070000F60700000D
:104ED0002DE9C04130B4DFF8A0C23CEA111418BF7C
:104EE0003CEA131400F0EC8081EA03051CEA11147B
:104EF00044EAD57418BF1CEA131500F0C780A4EB70
:104F000005044FF0004545EAC12145EAC32341EAC3
:104F1000505143EA525304F17F74994204F500342E
:104F20004FEAC0204FEAC22208BF904200F09C80A6
:104F30004FEA13650FF24016765D4FEA134506FB04
:104F400005F7C7F1807706FB07F74FEAD737A7FBCE
:104F500003687642C8F58038A7FB06CE38BFA8F1B3
:104F6000010807FB08E64FF0000EA6FB028CE6FBEB
:104F700003CEDCF1000CCEF1004E38BFAEF1010ED5
:104F8000A6FB0C584FF000074FF00005E6FB0E871C
:104F9000A1FB08C6A0FB07CE16EB0E0645F10005E7
:104FA000E1FB076515F1E04E7EBFA4F580345FEAB2
:104FB00046066D4116F1800745F100054FEA1727B7
:104FC0004FEA066647EA0567A6F1DE46B6F1805F5E
:104FD0004FEA15251FD9384624F0010C05EBC471A2
:104FE000BCF1FE6F01EB0C1102D8F0BCBDE80081F2
:104FF00024425CBF01F5801E9EEAC47F02D4F0BC4F
:10500000BDE80081244238D4F0BCA1F1C041BDE824
:10501000004100F0F3B94FEAD22242EA43524FEA8C
:10502000D323A7FB02864FEAD02040EA415007FB7A
:1050300003661EEA0E0F4FEAD12105FB026658BF38
:10504000A6EB0056B6EB00564FEA520E4EEAC37E70
:1050500018EB0E0E56EB530EBDD518EB02085E4151
:105060007F1C55F10005B6E74FF480154FF000079F
:105070004FF000064FF00008ADE7F0BC4FF0000025
:1050800001F1C04101F00041BDE8008111EA0C1FAF
:105090000CEA131500D00CE013EA0C1F00F0258079
:1050A0004FF00000F0BC81EA030101F00041BDE8CF
:1050B0000081F0BCBDE8004181EA030100F09EB927
:1050C000F0BCBDE8004170B500F04AF9097EFC3E35
:1050D00000F007B881EA03014FF0000001F0004141
:1050E000704781EA030100F089B9F0BCBDE80041D6
:1050F0004FF0000021497047FFFDFBF9F7F5F4F28E
:10510000F0EEEDEBE9E8E6E4E3E1E0DEDDDBDAD862
:10511000D7D5D4D3D1D0CFCDCCCBCAC8C7C6C5C4C0
:10512000C2C1C0BFBEBDBCBBBAB9B8B7B6B5B4B3D7
:10513000B2B1B0AFAEADACABAAA9A8A8A7A6A5A4C2
:10514000A3A3A2A1A09F9F9E9D9C9C9B9A99999886
:105150009797969595949393929191908F8F8E8E29
:105160008D8C8C8B8B8A89898888878786858584B6
:1051700084838382828181800000FF070000F87FA2
:105180004FEA41034FEA5353A3F58063D3F11E0363
:10519000C8BFD3F1210C0CDD4FF0004242EAC1221E
:1051A00042EA505232FA03FC8CEAE17CACEBE1704B
:1051B0007047102BC4BF0020704703F5787CBCF10A
:1051C000FF3F04D06FF0004282EA2100704770B5C3
:1051D00000F0C6F84992248000207047F2E710F0F2
:1051E000004248BF4042B0FA80F310FA03F10AD0FF
:1051F000C3F11D0303F580634FEA415002EB0352F4
:1052000002EBD12170474FF000007047DFF848C132
:1052100070B51CEA111E1EBF1CEA13159EEA0C0F86
:1052200095EA0C0F00F06F8081EA030423EA4C1327
:105230004EEAD47E21EA4C1141F4801143F48013EC
:10524000AE44A1FB024CA0FB0365AEF17F7E361994
:1052500055EB0C05A1FB034C4CF10003A0FB021C19
:1052600016EB0C06654153F10003094218BF46F0E6
:10527000010613F4007F0BD14FEA03314FEA0530EA
:10528000340341EA155140EA16506FF003020AE078
:105290004FEAC3214FEAC520F40241EA555140EAE2
:1052A00056506FF0020202EB2E4201EB025585EAE6
:1052B000CE710AD05FEA440C18BF24F0004450F1CC
:1052C000000041F1000120EAD47040F2FE7C62450A
:1052D00000D270BDA84214BF4FF080444FF040444C
:1052E000002E08BF0024BEF1806FA8BFA1F1C0410D
:1052F000BDE8704080F282804FF0000001F1C041B3
:1053000001F0004170479EEA0C0F0CEA131518BF1C
:1053100095EA0C0F06D04FF0000081EA030E0EF064
:10532000004170BD00F01CF88900013E00F007B894
:1053300000F009B84FEA430C5FEA5C5C08D081EAF0
:10534000030100F05BB84FEA410C5FEA5C5CF6D108
:105350004FF00000014970470000FF070000F87F90
:105360000EF1020E2EF0030E5EF8046B364205D4E9
:10537000012A43EB030515F5001F12D8012841EB64
:10538000010C1CF5001F0CD80ED14FEAD17C15F58D
:10539000001F0CEB4C0C0CF1020C08BF4CEBD37C47
:1053A00004E04FF0080C01E04FEAD37C0CEB4C0515
:1053B00026FA05F606F00706B6F1040C06D20EEB47
:1053C000860CBDE870404CF0010C6047DFE80CF043
:1053D000090B02024FF000414FF00000A1F500213F
:1053E00070BD19461046012851EB010418BFD4F5D1
:1053F000001484BF002001F0004170BD0808A0F532
:1054000000114FEA31017047FEF794BE303132335C
:1054100034353637383941424344454640305800E8
:10542000303132333435363738396162636465661A
:105430004030780004000008000000000000000276
:10544000000100001000000002400000000000A069
:105450000000000005400000000000C8000000003F
:105460000C4000000000409C0000000019400000BB
:105470000020BCBE0000000034400000BFC91B8EED
:1054800000000004B5400000504BCFD06607E2CFCB
:10549000010000006C4100003E8251AADFEEA734FB
:1054A00001000000D9420000DCB5A0E23A301F97AD
:1054B000FFFFFFFFB4450000FD25A0C8E9A3C14FD1
:1054C000FFFFFFFFFF3F0000000000800000000022
:1054D000FF3F000000000080000000003F000000CF
:1054E000646563006964000072756E74696D6500BF
:1054F00068656C70000000006C6973740000000047
:1055000068657800766F69642077726974655F6199
:105510006464722875333220616464722C7533328E
:105520002076616C29000000753332207265616459
:105530005F6164647228753332206164647229008B
:10554000766F6964204C6F636174655F526C655F50
:1055500041286C6F6E67206E756D2C753332206636
:1055600072657175656E63792C4449525F54797028
:105570006520646972290000766F6964204C6F634E
:105580006174655F526C655F59286C6F6E67206E41
:10559000756D2C753332206672657175656E637931
:1055A0002C4449525F547970652064697229000067
:1055B000766F69642064656C61795F6D73287531FD
:1055C00036206E6D73290000766F69642064656C07
:1055D00061795F757328753332206E757329000009
:1055E000766F69642058595F6261636B5F7A657298
:1055F0006F28753332206672657175656E6379291F
:1056000000000000766F6964204C6F636174655F11
:105610004162735F41286C6F6E67206E756D2C75EB
:105620003332206672657175656E637929000000FA
:10563000766F6964204C6F636174655F4162735F6C
:1056400059286C6F6E67206E756D2C75333220662D
:1056500072657175656E637929000000766F696403
:105660002058595F4D4F5645286C6F6E6720785F04
:105670006E756D2C6C6F6E6720795F6E756D2C7515
:105680003332206672657175656E6379290000009A
:10569000CC56000800000020CC0100006C0100087E
:1056A00060570008CC0100202C070000C80100084A
:1056B0001C00000043000000F8FFFFFF0C0000008A
:1056C0000E0000000F0000002E0000001184A24A0E
:1056D0000410090102030406070809E201D90F3189
:1056E0000B20C84624294E6952250204060813DC03
:1056F000541B08F0041AF8041AE4041112551B088C
:10570000E0081AE80413FF351B0828101305361BA0
:10571000080408137F0E1B08B0081A37081AC808B7
:1057200013C30B1B0840081B3F0C20125614082FF4
:10573000081B0878101AAB081A30101AF3181A5CF4
:10574000081ADD081AE0182288142053311B087744
:10575000041321321B0887600A120AA701CB00003C
:0400000508000131BD
:00000001FF
